{
  "_format": "hh-sol-artifact-1",
  "contractName": "NFTMarketplace",
  "sourceName": "contracts/NFTMarketplace.sol",
  "abi": [
    {
      "inputs": [],
      "stateMutability": "nonpayable",
      "type": "constructor"
    },
    {
      "inputs": [
        {
          "internalType": "uint256",
          "name": "numerator",
          "type": "uint256"
        },
        {
          "internalType": "uint256",
          "name": "denominator",
          "type": "uint256"
        }
      ],
      "name": "ERC2981InvalidDefaultRoyalty",
      "type": "error"
    },
    {
      "inputs": [
        {
          "internalType": "address",
          "name": "receiver",
          "type": "address"
        }
      ],
      "name": "ERC2981InvalidDefaultRoyaltyReceiver",
      "type": "error"
    },
    {
      "inputs": [
        {
          "internalType": "uint256",
          "name": "tokenId",
          "type": "uint256"
        },
        {
          "internalType": "uint256",
          "name": "numerator",
          "type": "uint256"
        },
        {
          "internalType": "uint256",
          "name": "denominator",
          "type": "uint256"
        }
      ],
      "name": "ERC2981InvalidTokenRoyalty",
      "type": "error"
    },
    {
      "inputs": [
        {
          "internalType": "uint256",
          "name": "tokenId",
          "type": "uint256"
        },
        {
          "internalType": "address",
          "name": "receiver",
          "type": "address"
        }
      ],
      "name": "ERC2981InvalidTokenRoyaltyReceiver",
      "type": "error"
    },
    {
      "inputs": [
        {
          "internalType": "address",
          "name": "sender",
          "type": "address"
        },
        {
          "internalType": "uint256",
          "name": "tokenId",
          "type": "uint256"
        },
        {
          "internalType": "address",
          "name": "owner",
          "type": "address"
        }
      ],
      "name": "ERC721IncorrectOwner",
      "type": "error"
    },
    {
      "inputs": [
        {
          "internalType": "address",
          "name": "operator",
          "type": "address"
        },
        {
          "internalType": "uint256",
          "name": "tokenId",
          "type": "uint256"
        }
      ],
      "name": "ERC721InsufficientApproval",
      "type": "error"
    },
    {
      "inputs": [
        {
          "internalType": "address",
          "name": "approver",
          "type": "address"
        }
      ],
      "name": "ERC721InvalidApprover",
      "type": "error"
    },
    {
      "inputs": [
        {
          "internalType": "address",
          "name": "operator",
          "type": "address"
        }
      ],
      "name": "ERC721InvalidOperator",
      "type": "error"
    },
    {
      "inputs": [
        {
          "internalType": "address",
          "name": "owner",
          "type": "address"
        }
      ],
      "name": "ERC721InvalidOwner",
      "type": "error"
    },
    {
      "inputs": [
        {
          "internalType": "address",
          "name": "receiver",
          "type": "address"
        }
      ],
      "name": "ERC721InvalidReceiver",
      "type": "error"
    },
    {
      "inputs": [
        {
          "internalType": "address",
          "name": "sender",
          "type": "address"
        }
      ],
      "name": "ERC721InvalidSender",
      "type": "error"
    },
    {
      "inputs": [
        {
          "internalType": "uint256",
          "name": "tokenId",
          "type": "uint256"
        }
      ],
      "name": "ERC721NonexistentToken",
      "type": "error"
    },
    {
      "anonymous": false,
      "inputs": [
        {
          "indexed": true,
          "internalType": "address",
          "name": "owner",
          "type": "address"
        },
        {
          "indexed": true,
          "internalType": "address",
          "name": "approved",
          "type": "address"
        },
        {
          "indexed": true,
          "internalType": "uint256",
          "name": "tokenId",
          "type": "uint256"
        }
      ],
      "name": "Approval",
      "type": "event"
    },
    {
      "anonymous": false,
      "inputs": [
        {
          "indexed": true,
          "internalType": "address",
          "name": "owner",
          "type": "address"
        },
        {
          "indexed": true,
          "internalType": "address",
          "name": "operator",
          "type": "address"
        },
        {
          "indexed": false,
          "internalType": "bool",
          "name": "approved",
          "type": "bool"
        }
      ],
      "name": "ApprovalForAll",
      "type": "event"
    },
    {
      "anonymous": false,
      "inputs": [
        {
          "indexed": false,
          "internalType": "uint256",
          "name": "_fromTokenId",
          "type": "uint256"
        },
        {
          "indexed": false,
          "internalType": "uint256",
          "name": "_toTokenId",
          "type": "uint256"
        }
      ],
      "name": "BatchMetadataUpdate",
      "type": "event"
    },
    {
      "anonymous": false,
      "inputs": [
        {
          "indexed": false,
          "internalType": "uint256",
          "name": "_tokenId",
          "type": "uint256"
        }
      ],
      "name": "MetadataUpdate",
      "type": "event"
    },
    {
      "anonymous": false,
      "inputs": [
        {
          "indexed": true,
          "internalType": "address",
          "name": "from",
          "type": "address"
        },
        {
          "indexed": true,
          "internalType": "address",
          "name": "to",
          "type": "address"
        },
        {
          "indexed": true,
          "internalType": "uint256",
          "name": "tokenId",
          "type": "uint256"
        }
      ],
      "name": "Transfer",
      "type": "event"
    },
    {
      "anonymous": false,
      "inputs": [
        {
          "indexed": true,
          "internalType": "uint256",
          "name": "tokenId",
          "type": "uint256"
        },
        {
          "indexed": false,
          "internalType": "address",
          "name": "seller",
          "type": "address"
        },
        {
          "indexed": false,
          "internalType": "address",
          "name": "owner",
          "type": "address"
        },
        {
          "indexed": false,
          "internalType": "address",
          "name": "creator",
          "type": "address"
        },
        {
          "indexed": false,
          "internalType": "uint256",
          "name": "price",
          "type": "uint256"
        },
        {
          "indexed": false,
          "internalType": "uint96",
          "name": "royaltyPercentage",
          "type": "uint96"
        },
        {
          "indexed": false,
          "internalType": "bool",
          "name": "sold",
          "type": "bool"
        }
      ],
      "name": "idMarketItemCreated",
      "type": "event"
    },
    {
      "inputs": [
        {
          "internalType": "address",
          "name": "to",
          "type": "address"
        },
        {
          "internalType": "uint256",
          "name": "tokenId",
          "type": "uint256"
        }
      ],
      "name": "approve",
      "outputs": [],
      "stateMutability": "nonpayable",
      "type": "function"
    },
    {
      "inputs": [
        {
          "internalType": "address",
          "name": "owner",
          "type": "address"
        }
      ],
      "name": "balanceOf",
      "outputs": [
        {
          "internalType": "uint256",
          "name": "",
          "type": "uint256"
        }
      ],
      "stateMutability": "view",
      "type": "function"
    },
    {
      "inputs": [
        {
          "internalType": "bytes32[]",
          "name": "proof",
          "type": "bytes32[]"
        },
        {
          "internalType": "address",
          "name": "addr",
          "type": "address"
        },
        {
          "internalType": "uint256",
          "name": "amount",
          "type": "uint256"
        }
      ],
      "name": "checkWhitelisted",
      "outputs": [
        {
          "internalType": "bool",
          "name": "",
          "type": "bool"
        }
      ],
      "stateMutability": "view",
      "type": "function"
    },
    {
      "inputs": [
        {
          "internalType": "uint256",
          "name": "tokenId",
          "type": "uint256"
        },
        {
          "internalType": "bytes32[]",
          "name": "proof",
          "type": "bytes32[]"
        }
      ],
      "name": "createMarketSale",
      "outputs": [],
      "stateMutability": "payable",
      "type": "function"
    },
    {
      "inputs": [
        {
          "internalType": "string",
          "name": "tokenURI",
          "type": "string"
        },
        {
          "internalType": "uint256",
          "name": "price",
          "type": "uint256"
        },
        {
          "internalType": "uint96",
          "name": "royaltyBasisPoints",
          "type": "uint96"
        }
      ],
      "name": "createToken",
      "outputs": [
        {
          "internalType": "uint256",
          "name": "",
          "type": "uint256"
        }
      ],
      "stateMutability": "payable",
      "type": "function"
    },
    {
      "inputs": [],
      "name": "fetchItemListed",
      "outputs": [
        {
          "components": [
            {
              "internalType": "uint256",
              "name": "tokenId",
              "type": "uint256"
            },
            {
              "internalType": "address payable",
              "name": "seller",
              "type": "address"
            },
            {
              "internalType": "address payable",
              "name": "owner",
              "type": "address"
            },
            {
              "internalType": "address payable",
              "name": "creator",
              "type": "address"
            },
            {
              "internalType": "uint256",
              "name": "price",
              "type": "uint256"
            },
            {
              "internalType": "uint96",
              "name": "royaltyPercentage",
              "type": "uint96"
            },
            {
              "internalType": "bool",
              "name": "sold",
              "type": "bool"
            }
          ],
          "internalType": "struct NFTMarketplace.MarketItem[]",
          "name": "",
          "type": "tuple[]"
        }
      ],
      "stateMutability": "view",
      "type": "function"
    },
    {
      "inputs": [],
      "name": "fetchMarketItem",
      "outputs": [
        {
          "components": [
            {
              "internalType": "uint256",
              "name": "tokenId",
              "type": "uint256"
            },
            {
              "internalType": "address payable",
              "name": "seller",
              "type": "address"
            },
            {
              "internalType": "address payable",
              "name": "owner",
              "type": "address"
            },
            {
              "internalType": "address payable",
              "name": "creator",
              "type": "address"
            },
            {
              "internalType": "uint256",
              "name": "price",
              "type": "uint256"
            },
            {
              "internalType": "uint96",
              "name": "royaltyPercentage",
              "type": "uint96"
            },
            {
              "internalType": "bool",
              "name": "sold",
              "type": "bool"
            }
          ],
          "internalType": "struct NFTMarketplace.MarketItem[]",
          "name": "",
          "type": "tuple[]"
        }
      ],
      "stateMutability": "view",
      "type": "function"
    },
    {
      "inputs": [],
      "name": "fetchMyNFTs",
      "outputs": [
        {
          "components": [
            {
              "internalType": "uint256",
              "name": "tokenId",
              "type": "uint256"
            },
            {
              "internalType": "address payable",
              "name": "seller",
              "type": "address"
            },
            {
              "internalType": "address payable",
              "name": "owner",
              "type": "address"
            },
            {
              "internalType": "address payable",
              "name": "creator",
              "type": "address"
            },
            {
              "internalType": "uint256",
              "name": "price",
              "type": "uint256"
            },
            {
              "internalType": "uint96",
              "name": "royaltyPercentage",
              "type": "uint96"
            },
            {
              "internalType": "bool",
              "name": "sold",
              "type": "bool"
            }
          ],
          "internalType": "struct NFTMarketplace.MarketItem[]",
          "name": "",
          "type": "tuple[]"
        }
      ],
      "stateMutability": "view",
      "type": "function"
    },
    {
      "inputs": [
        {
          "internalType": "uint256",
          "name": "tokenId",
          "type": "uint256"
        }
      ],
      "name": "getApproved",
      "outputs": [
        {
          "internalType": "address",
          "name": "",
          "type": "address"
        }
      ],
      "stateMutability": "view",
      "type": "function"
    },
    {
      "inputs": [],
      "name": "getListingPrice",
      "outputs": [
        {
          "internalType": "uint256",
          "name": "",
          "type": "uint256"
        }
      ],
      "stateMutability": "view",
      "type": "function"
    },
    {
      "inputs": [
        {
          "internalType": "uint256",
          "name": "tokenId",
          "type": "uint256"
        }
      ],
      "name": "getRoyaltyInfo",
      "outputs": [
        {
          "internalType": "address",
          "name": "",
          "type": "address"
        },
        {
          "internalType": "uint256",
          "name": "",
          "type": "uint256"
        }
      ],
      "stateMutability": "view",
      "type": "function"
    },
    {
      "inputs": [
        {
          "internalType": "address",
          "name": "owner",
          "type": "address"
        },
        {
          "internalType": "address",
          "name": "operator",
          "type": "address"
        }
      ],
      "name": "isApprovedForAll",
      "outputs": [
        {
          "internalType": "bool",
          "name": "",
          "type": "bool"
        }
      ],
      "stateMutability": "view",
      "type": "function"
    },
    {
      "inputs": [
        {
          "internalType": "uint256",
          "name": "",
          "type": "uint256"
        }
      ],
      "name": "isRoyaltyExempt",
      "outputs": [
        {
          "internalType": "bool",
          "name": "",
          "type": "bool"
        }
      ],
      "stateMutability": "view",
      "type": "function"
    },
    {
      "inputs": [],
      "name": "maxRoyaltyLimit",
      "outputs": [
        {
          "internalType": "uint96",
          "name": "",
          "type": "uint96"
        }
      ],
      "stateMutability": "view",
      "type": "function"
    },
    {
      "inputs": [],
      "name": "merkleRoot",
      "outputs": [
        {
          "internalType": "bytes32",
          "name": "",
          "type": "bytes32"
        }
      ],
      "stateMutability": "view",
      "type": "function"
    },
    {
      "inputs": [],
      "name": "name",
      "outputs": [
        {
          "internalType": "string",
          "name": "",
          "type": "string"
        }
      ],
      "stateMutability": "view",
      "type": "function"
    },
    {
      "inputs": [],
      "name": "owner",
      "outputs": [
        {
          "internalType": "address payable",
          "name": "",
          "type": "address"
        }
      ],
      "stateMutability": "view",
      "type": "function"
    },
    {
      "inputs": [
        {
          "internalType": "uint256",
          "name": "tokenId",
          "type": "uint256"
        }
      ],
      "name": "ownerOf",
      "outputs": [
        {
          "internalType": "address",
          "name": "",
          "type": "address"
        }
      ],
      "stateMutability": "view",
      "type": "function"
    },
    {
      "inputs": [
        {
          "internalType": "uint256",
          "name": "tokenId",
          "type": "uint256"
        },
        {
          "internalType": "uint256",
          "name": "price",
          "type": "uint256"
        }
      ],
      "name": "resellToken",
      "outputs": [],
      "stateMutability": "payable",
      "type": "function"
    },
    {
      "inputs": [
        {
          "internalType": "uint256",
          "name": "tokenId",
          "type": "uint256"
        },
        {
          "internalType": "uint256",
          "name": "salePrice",
          "type": "uint256"
        }
      ],
      "name": "royaltyInfo",
      "outputs": [
        {
          "internalType": "address",
          "name": "receiver",
          "type": "address"
        },
        {
          "internalType": "uint256",
          "name": "amount",
          "type": "uint256"
        }
      ],
      "stateMutability": "view",
      "type": "function"
    },
    {
      "inputs": [
        {
          "internalType": "address",
          "name": "from",
          "type": "address"
        },
        {
          "internalType": "address",
          "name": "to",
          "type": "address"
        },
        {
          "internalType": "uint256",
          "name": "tokenId",
          "type": "uint256"
        }
      ],
      "name": "safeTransferFrom",
      "outputs": [],
      "stateMutability": "nonpayable",
      "type": "function"
    },
    {
      "inputs": [
        {
          "internalType": "address",
          "name": "from",
          "type": "address"
        },
        {
          "internalType": "address",
          "name": "to",
          "type": "address"
        },
        {
          "internalType": "uint256",
          "name": "tokenId",
          "type": "uint256"
        },
        {
          "internalType": "bytes",
          "name": "data",
          "type": "bytes"
        }
      ],
      "name": "safeTransferFrom",
      "outputs": [],
      "stateMutability": "nonpayable",
      "type": "function"
    },
    {
      "inputs": [
        {
          "internalType": "address",
          "name": "operator",
          "type": "address"
        },
        {
          "internalType": "bool",
          "name": "approved",
          "type": "bool"
        }
      ],
      "name": "setApprovalForAll",
      "outputs": [],
      "stateMutability": "nonpayable",
      "type": "function"
    },
    {
      "inputs": [
        {
          "internalType": "bytes32",
          "name": "_merkleRoot",
          "type": "bytes32"
        }
      ],
      "name": "setMerkleRoot",
      "outputs": [],
      "stateMutability": "nonpayable",
      "type": "function"
    },
    {
      "inputs": [
        {
          "internalType": "uint256",
          "name": "tokenId",
          "type": "uint256"
        },
        {
          "internalType": "bool",
          "name": "exempt",
          "type": "bool"
        }
      ],
      "name": "setRoyaltyExempt",
      "outputs": [],
      "stateMutability": "nonpayable",
      "type": "function"
    },
    {
      "inputs": [
        {
          "internalType": "address",
          "name": "receiver",
          "type": "address"
        },
        {
          "internalType": "uint96",
          "name": "feeBasisPoints",
          "type": "uint96"
        }
      ],
      "name": "setRoyaltyInfo",
      "outputs": [],
      "stateMutability": "nonpayable",
      "type": "function"
    },
    {
      "inputs": [
        {
          "internalType": "bytes4",
          "name": "interfaceId",
          "type": "bytes4"
        }
      ],
      "name": "supportsInterface",
      "outputs": [
        {
          "internalType": "bool",
          "name": "",
          "type": "bool"
        }
      ],
      "stateMutability": "view",
      "type": "function"
    },
    {
      "inputs": [],
      "name": "symbol",
      "outputs": [
        {
          "internalType": "string",
          "name": "",
          "type": "string"
        }
      ],
      "stateMutability": "view",
      "type": "function"
    },
    {
      "inputs": [
        {
          "internalType": "uint256",
          "name": "tokenId",
          "type": "uint256"
        }
      ],
      "name": "tokenURI",
      "outputs": [
        {
          "internalType": "string",
          "name": "",
          "type": "string"
        }
      ],
      "stateMutability": "view",
      "type": "function"
    },
    {
      "inputs": [
        {
          "internalType": "address",
          "name": "from",
          "type": "address"
        },
        {
          "internalType": "address",
          "name": "to",
          "type": "address"
        },
        {
          "internalType": "uint256",
          "name": "tokenId",
          "type": "uint256"
        }
      ],
      "name": "transferFrom",
      "outputs": [],
      "stateMutability": "nonpayable",
      "type": "function"
    },
    {
      "inputs": [
        {
          "internalType": "uint256",
          "name": "changedListingPrice",
          "type": "uint256"
        }
      ],
      "name": "updateListingPrice",
      "outputs": [],
      "stateMutability": "payable",
      "type": "function"
    },
    {
      "inputs": [
        {
          "internalType": "uint256",
          "name": "tokenId",
          "type": "uint256"
        },
        {
          "internalType": "uint96",
          "name": "newPercentage",
          "type": "uint96"
        }
      ],
      "name": "updateRoyaltyPercentage",
      "outputs": [],
      "stateMutability": "nonpayable",
      "type": "function"
    },
    {
      "inputs": [
        {
          "internalType": "uint256",
          "name": "tokenId",
          "type": "uint256"
        },
        {
          "internalType": "address",
          "name": "newReceiver",
          "type": "address"
        }
      ],
      "name": "updateRoyaltyReceiver",
      "outputs": [],
      "stateMutability": "nonpayable",
      "type": "function"
    }
  ],
  "bytecode": "0x60806040526605543df729c000600d5534801561001b57600080fd5b506040518060400160405280600b81526020017f49204368696e67204e46540000000000000000000000000000000000000000008152506040518060400160405280600781526020017f494348494e47540000000000000000000000000000000000000000000000000081525081600090816100979190610340565b5080600190816100a79190610340565b50505033600b60006101000a81548173ffffffffffffffffffffffffffffffffffffffff021916908373ffffffffffffffffffffffffffffffffffffffff160217905550610412565b600081519050919050565b7f4e487b7100000000000000000000000000000000000000000000000000000000600052604160045260246000fd5b7f4e487b7100000000000000000000000000000000000000000000000000000000600052602260045260246000fd5b6000600282049050600182168061017157607f821691505b6020821081036101845761018361012a565b5b50919050565b60008190508160005260206000209050919050565b60006020601f8301049050919050565b600082821b905092915050565b6000600883026101ec7fffffffffffffffffffffffffffffffffffffffffffffffffffffffffffffffff826101af565b6101f686836101af565b95508019841693508086168417925050509392505050565b6000819050919050565b6000819050919050565b600061023d6102386102338461020e565b610218565b61020e565b9050919050565b6000819050919050565b61025783610222565b61026b61026382610244565b8484546101bc565b825550505050565b600090565b610280610273565b61028b81848461024e565b505050565b5b818110156102af576102a4600082610278565b600181019050610291565b5050565b601f8211156102f4576102c58161018a565b6102ce8461019f565b810160208510156102dd578190505b6102f16102e98561019f565b830182610290565b50505b505050565b600082821c905092915050565b6000610317600019846008026102f9565b1980831691505092915050565b60006103308383610306565b9150826002028217905092915050565b610349826100f0565b67ffffffffffffffff811115610362576103616100fb565b5b61036c8254610159565b6103778282856102b3565b600060209050601f8311600181146103aa5760008415610398578287015190505b6103a28582610324565b86555061040a565b601f1984166103b88661018a565b60005b828110156103e0578489015182556001820191506020850194506020810190506103bb565b868310156103fd57848901516103f9601f891682610306565b8355505b6001600288020188555050505b505050505050565b6159bb806104216000396000f3fe6080604052600436106101ee5760003560e01c80634b536d2a1161010d578063ae677aa3116100a0578063d7b848791161006f578063d7b8487914610720578063e17914451461074b578063e219fc7514610776578063e985e9c514610792578063f654b3d9146107cf576101ee565b8063ae677aa314610660578063b76c632b1461067c578063b88d4fde146106ba578063c87b56dd146106e3576101ee565b80638da5cb5b116100dc5780638da5cb5b146105b65780638fafd021146105e157806395d89b411461060c578063a22cb46514610637576101ee565b80634b536d2a146104d65780636352211e1461051357806370a08231146105505780637cb647591461058d576101ee565b8063202e3740116101855780632eb4a7ab116101545780632eb4a7ab1461043057806334fb1c211461045b578063354c85aa1461048457806342842e0e146104ad576101ee565b8063202e37401461036157806323b872dd1461038c57806324b0af93146103b55780632a55205a146103f2576101ee565b806306fdde03116101c157806306fdde03146102a5578063081812fc146102d0578063095ea7b31461030d57806312e8558514610336576101ee565b806301ffc9a7146101f357806302fa7c4714610230578063047ec47314610259578063053b13c014610289575b600080fd5b3480156101ff57600080fd5b5061021a60048036038101906102159190613f97565b6107f8565b6040516102279190613fdf565b60405180910390f35b34801561023c57600080fd5b506102576004803603810190610252919061409c565b61080a565b005b610273600480360381019061026e9190614258565b6108a8565b60405161028091906142d6565b60405180910390f35b6102a3600480360381019061029e91906143ef565b6109cc565b005b3480156102b157600080fd5b506102ba610f62565b6040516102c791906144ca565b60405180910390f35b3480156102dc57600080fd5b506102f760048036038101906102f291906144ec565b610ff4565b6040516103049190614528565b60405180910390f35b34801561031957600080fd5b50610334600480360381019061032f9190614543565b611010565b005b34801561034257600080fd5b5061034b611026565b60405161035891906142d6565b60405180910390f35b34801561036d57600080fd5b50610376611030565b604051610383919061470e565b60405180910390f35b34801561039857600080fd5b506103b360048036038101906103ae9190614730565b611382565b005b3480156103c157600080fd5b506103dc60048036038101906103d791906144ec565b611484565b6040516103e99190613fdf565b60405180910390f35b3480156103fe57600080fd5b5061041960048036038101906104149190614783565b6114a4565b6040516104279291906147c3565b60405180910390f35b34801561043c57600080fd5b506104456115d4565b60405161045291906147fb565b60405180910390f35b34801561046757600080fd5b50610482600480360381019061047d9190614842565b6115da565b005b34801561049057600080fd5b506104ab60048036038101906104a69190614882565b611699565b005b3480156104b957600080fd5b506104d460048036038101906104cf9190614730565b61177a565b005b3480156104e257600080fd5b506104fd60048036038101906104f891906148c2565b61179a565b60405161050a9190613fdf565b60405180910390f35b34801561051f57600080fd5b5061053a600480360381019061053591906144ec565b61181c565b6040516105479190614528565b60405180910390f35b34801561055c57600080fd5b5061057760048036038101906105729190614931565b61182e565b60405161058491906142d6565b60405180910390f35b34801561059957600080fd5b506105b460048036038101906105af919061495e565b6118e8565b005b3480156105c257600080fd5b506105cb611982565b6040516105d8919061499a565b60405180910390f35b3480156105ed57600080fd5b506105f66119a8565b604051610603919061470e565b60405180910390f35b34801561061857600080fd5b50610621611c87565b60405161062e91906144ca565b60405180910390f35b34801561064357600080fd5b5061065e600480360381019061065991906149b5565b611d19565b005b61067a600480360381019061067591906144ec565b611d2f565b005b34801561068857600080fd5b506106a3600480360381019061069e91906144ec565b611dc9565b6040516106b19291906147c3565b60405180910390f35b3480156106c657600080fd5b506106e160048036038101906106dc9190614a96565b611df5565b005b3480156106ef57600080fd5b5061070a600480360381019061070591906144ec565b611e1a565b60405161071791906144ca565b60405180910390f35b34801561072c57600080fd5b50610735611f2d565b6040516107429190614b28565b60405180910390f35b34801561075757600080fd5b50610760611f33565b60405161076d919061470e565b60405180910390f35b610790600480360381019061078b9190614783565b61228b565b005b34801561079e57600080fd5b506107b960048036038101906107b49190614b43565b61248c565b6040516107c69190613fdf565b60405180910390f35b3480156107db57600080fd5b506107f660048036038101906107f19190614b83565b612520565b005b6000610803826126af565b9050919050565b600b60009054906101000a900473ffffffffffffffffffffffffffffffffffffffff1673ffffffffffffffffffffffffffffffffffffffff163373ffffffffffffffffffffffffffffffffffffffff161461089a576040517f08c379a000000000000000000000000000000000000000000000000000000000815260040161089190614c35565b60405180910390fd5b6108a48282612729565b5050565b60006107d06bffffffffffffffffffffffff16826bffffffffffffffffffffffff16111561090b576040517f08c379a000000000000000000000000000000000000000000000000000000000815260040161090290614ca1565b60405180910390fd5b600073ffffffffffffffffffffffffffffffffffffffff163373ffffffffffffffffffffffffffffffffffffffff160361097a576040517f08c379a000000000000000000000000000000000000000000000000000000000815260040161097190614d0d565b60405180910390fd5b60096000815461098990614d5c565b91905081905550600060095490506109a133826128cb565b6109ab81866129c4565b6109b6813385612a20565b6109c1818585612bd8565b809150509392505050565b6000600c6000848152602001908152602001600020905060006109f18333600161179a565b90506000610a038584600401546114a4565b915050655af3107a4000811015610a6e57655af3107a40009050600d5481610a2b9190614da4565b341015610a6d576040517f08c379a0000000000000000000000000000000000000000000000000000000008152600401610a6490614e24565b60405180910390fd5b5b81610cba5782600401543414610ab9576040517f08c379a0000000000000000000000000000000000000000000000000000000008152600401610ab090614eb6565b60405180910390fd5b600b60009054906101000a900473ffffffffffffffffffffffffffffffffffffffff1673ffffffffffffffffffffffffffffffffffffffff166108fc600d549081150290604051600060405180830381858888f19350505050158015610b23573d6000803e3d6000fd5b50600e600086815260200190815260200160002060009054906101000a900460ff16610c3c578260030160009054906101000a900473ffffffffffffffffffffffffffffffffffffffff1673ffffffffffffffffffffffffffffffffffffffff166108fc829081150290604051600060405180830381858888f19350505050158015610bb3573d6000803e3d6000fd5b508260010160009054906101000a900473ffffffffffffffffffffffffffffffffffffffff1673ffffffffffffffffffffffffffffffffffffffff166108fc600d548334610c019190614ed6565b610c0b9190614ed6565b9081150290604051600060405180830381858888f19350505050158015610c36573d6000803e3d6000fd5b50610cb5565b8260010160009054906101000a900473ffffffffffffffffffffffffffffffffffffffff1673ffffffffffffffffffffffffffffffffffffffff166108fc600d5434610c889190614ed6565b9081150290604051600060405180830381858888f19350505050158015610cb3573d6000803e3d6000fd5b505b610e96565b60006064605a8560040154610ccf9190614f0a565b610cd99190614f7b565b9050803414610d1d576040517f08c379a0000000000000000000000000000000000000000000000000000000008152600401610d149061501e565b60405180910390fd5b600e600087815260200190815260200160002060009054906101000a900460ff16610e28578360030160009054906101000a900473ffffffffffffffffffffffffffffffffffffffff1673ffffffffffffffffffffffffffffffffffffffff166108fc839081150290604051600060405180830381858888f19350505050158015610dac573d6000803e3d6000fd5b508360010160009054906101000a900473ffffffffffffffffffffffffffffffffffffffff1673ffffffffffffffffffffffffffffffffffffffff166108fc8383610df79190614ed6565b9081150290604051600060405180830381858888f19350505050158015610e22573d6000803e3d6000fd5b50610e94565b8360010160009054906101000a900473ffffffffffffffffffffffffffffffffffffffff1673ffffffffffffffffffffffffffffffffffffffff166108fc829081150290604051600060405180830381858888f19350505050158015610e92573d6000803e3d6000fd5b505b505b338360020160006101000a81548173ffffffffffffffffffffffffffffffffffffffff021916908373ffffffffffffffffffffffffffffffffffffffff160217905550600183600501600c6101000a81548160ff02191690831515021790555060008360010160006101000a81548173ffffffffffffffffffffffffffffffffffffffff021916908373ffffffffffffffffffffffffffffffffffffffff160217905550600a60008154610f4990614d5c565b91905081905550610f5b303387612e8e565b5050505050565b606060008054610f719061506d565b80601f0160208091040260200160405190810160405280929190818152602001828054610f9d9061506d565b8015610fea5780601f10610fbf57610100808354040283529160200191610fea565b820191906000526020600020905b815481529060010190602001808311610fcd57829003601f168201915b5050505050905090565b6000610fff82612ffb565b5061100982613083565b9050919050565b611022828261101d6130c0565b6130c8565b5050565b6000600d54905090565b60606000805b6009548110156110cd573373ffffffffffffffffffffffffffffffffffffffff16600c60006001846110689190614da4565b815260200190815260200160002060020160009054906101000a900473ffffffffffffffffffffffffffffffffffffffff1673ffffffffffffffffffffffffffffffffffffffff16036110c257816110bf90614d5c565b91505b806001019050611036565b5060008167ffffffffffffffff8111156110ea576110e96140f7565b5b60405190808252806020026020018201604052801561112357816020015b611110613e9c565b8152602001906001900390816111085790505b5090506000805b600954811015611378573373ffffffffffffffffffffffffffffffffffffffff16600c600060018461115c9190614da4565b815260200190815260200160002060020160009054906101000a900473ffffffffffffffffffffffffffffffffffffffff1673ffffffffffffffffffffffffffffffffffffffff160361136d57600c60006001836111ba9190614da4565b81526020019081526020016000206040518060e0016040529081600082015481526020016001820160009054906101000a900473ffffffffffffffffffffffffffffffffffffffff1673ffffffffffffffffffffffffffffffffffffffff1673ffffffffffffffffffffffffffffffffffffffff1681526020016002820160009054906101000a900473ffffffffffffffffffffffffffffffffffffffff1673ffffffffffffffffffffffffffffffffffffffff1673ffffffffffffffffffffffffffffffffffffffff1681526020016003820160009054906101000a900473ffffffffffffffffffffffffffffffffffffffff1673ffffffffffffffffffffffffffffffffffffffff1673ffffffffffffffffffffffffffffffffffffffff168152602001600482015481526020016005820160009054906101000a90046bffffffffffffffffffffffff166bffffffffffffffffffffffff166bffffffffffffffffffffffff16815260200160058201600c9054906101000a900460ff16151515158152505083838061134e90614d5c565b9450815181106113615761136061509e565b5b60200260200101819052505b80600101905061112a565b5081935050505090565b600073ffffffffffffffffffffffffffffffffffffffff168273ffffffffffffffffffffffffffffffffffffffff16036113f45760006040517f64a0ae920000000000000000000000000000000000000000000000000000000081526004016113eb9190614528565b60405180910390fd5b600061140883836114036130c0565b6130da565b90508373ffffffffffffffffffffffffffffffffffffffff168173ffffffffffffffffffffffffffffffffffffffff161461147e578382826040517f64283d7b000000000000000000000000000000000000000000000000000000008152600401611475939291906150cd565b60405180910390fd5b50505050565b600e6020528060005260406000206000915054906101000a900460ff1681565b600080600060086000868152602001908152602001600020905060008160000160009054906101000a900473ffffffffffffffffffffffffffffffffffffffff16905060008260000160149054906101000a90046bffffffffffffffffffffffff169050600073ffffffffffffffffffffffffffffffffffffffff168273ffffffffffffffffffffffffffffffffffffffff160361158557600760000160009054906101000a900473ffffffffffffffffffffffffffffffffffffffff169150600760000160149054906101000a90046bffffffffffffffffffffffff1690505b600061158f6132f4565b6bffffffffffffffffffffffff16826bffffffffffffffffffffffff16886115b79190614f0a565b6115c19190614f7b565b9050828195509550505050509250929050565b600f5481565b600b60009054906101000a900473ffffffffffffffffffffffffffffffffffffffff1673ffffffffffffffffffffffffffffffffffffffff163373ffffffffffffffffffffffffffffffffffffffff161461166a576040517f08c379a000000000000000000000000000000000000000000000000000000000815260040161166190614c35565b60405180910390fd5b80600e600084815260200190815260200160002060006101000a81548160ff0219169083151502179055505050565b600c600083815260200190815260200160002060030160009054906101000a900473ffffffffffffffffffffffffffffffffffffffff1673ffffffffffffffffffffffffffffffffffffffff163373ffffffffffffffffffffffffffffffffffffffff161461173d576040517f08c379a000000000000000000000000000000000000000000000000000000000815260040161173490615150565b60405180910390fd5b6117768282600c600086815260200190815260200160002060050160009054906101000a90046bffffffffffffffffffffffff16612a20565b5050565b61179583838360405180602001604052806000815250611df5565b505050565b60008060001b600f54036117b15760009050611815565b600083836040516020016117c69291906147c3565b604051602081830303815290604052805190602001206040516020016117ec9190615191565b60405160208183030381529060405280519060200120905061181185600f54836132fe565b9150505b9392505050565b600061182782612ffb565b9050919050565b60008073ffffffffffffffffffffffffffffffffffffffff168273ffffffffffffffffffffffffffffffffffffffff16036118a15760006040517f89c62b640000000000000000000000000000000000000000000000000000000081526004016118989190614528565b60405180910390fd5b600360008373ffffffffffffffffffffffffffffffffffffffff1673ffffffffffffffffffffffffffffffffffffffff168152602001908152602001600020549050919050565b600b60009054906101000a900473ffffffffffffffffffffffffffffffffffffffff1673ffffffffffffffffffffffffffffffffffffffff163373ffffffffffffffffffffffffffffffffffffffff1614611978576040517f08c379a000000000000000000000000000000000000000000000000000000000815260040161196f90614c35565b60405180910390fd5b80600f8190555050565b600b60009054906101000a900473ffffffffffffffffffffffffffffffffffffffff1681565b6060600060095490506000600a546009546119c39190614ed6565b90506000808267ffffffffffffffff8111156119e2576119e16140f7565b5b604051908082528060200260200182016040528015611a1b57816020015b611a08613e9c565b815260200190600190039081611a005790505b50905060005b84811015611c7c573073ffffffffffffffffffffffffffffffffffffffff16600c6000600184611a519190614da4565b815260200190815260200160002060020160009054906101000a900473ffffffffffffffffffffffffffffffffffffffff1673ffffffffffffffffffffffffffffffffffffffff1603611c71576000600182611aad9190614da4565b90506000600c60008381526020019081526020016000209050806040518060e0016040529081600082015481526020016001820160009054906101000a900473ffffffffffffffffffffffffffffffffffffffff1673ffffffffffffffffffffffffffffffffffffffff1673ffffffffffffffffffffffffffffffffffffffff1681526020016002820160009054906101000a900473ffffffffffffffffffffffffffffffffffffffff1673ffffffffffffffffffffffffffffffffffffffff1673ffffffffffffffffffffffffffffffffffffffff1681526020016003820160009054906101000a900473ffffffffffffffffffffffffffffffffffffffff1673ffffffffffffffffffffffffffffffffffffffff1673ffffffffffffffffffffffffffffffffffffffff168152602001600482015481526020016005820160009054906101000a90046bffffffffffffffffffffffff166bffffffffffffffffffffffff166bffffffffffffffffffffffff16815260200160058201600c9054906101000a900460ff161515151581525050848681518110611c5457611c5361509e565b5b6020026020010181905250600185611c6c9190614da4565b945050505b806001019050611a21565b508094505050505090565b606060018054611c969061506d565b80601f0160208091040260200160405190810160405280929190818152602001828054611cc29061506d565b8015611d0f5780601f10611ce457610100808354040283529160200191611d0f565b820191906000526020600020905b815481529060010190602001808311611cf257829003601f168201915b5050505050905090565b611d2b611d246130c0565b8383613315565b5050565b600b60009054906101000a900473ffffffffffffffffffffffffffffffffffffffff1673ffffffffffffffffffffffffffffffffffffffff163373ffffffffffffffffffffffffffffffffffffffff1614611dbf576040517f08c379a0000000000000000000000000000000000000000000000000000000008152600401611db690614c35565b60405180910390fd5b80600d8190555050565b600080611dec83600c6000868152602001908152602001600020600401546114a4565b91509150915091565b611e00848484611382565b611e14611e0b6130c0565b85858585613484565b50505050565b6060611e2582612ffb565b506000600660008481526020019081526020016000208054611e469061506d565b80601f0160208091040260200160405190810160405280929190818152602001828054611e729061506d565b8015611ebf5780601f10611e9457610100808354040283529160200191611ebf565b820191906000526020600020905b815481529060010190602001808311611ea257829003601f168201915b505050505090506000611ed0613635565b90506000815103611ee5578192505050611f28565b600082511115611f1a578082604051602001611f029291906151e8565b60405160208183030381529060405292505050611f28565b611f238461364c565b925050505b919050565b6107d081565b60606000805b600954811015611fd0573373ffffffffffffffffffffffffffffffffffffffff16600c6000600184611f6b9190614da4565b815260200190815260200160002060010160009054906101000a900473ffffffffffffffffffffffffffffffffffffffff1673ffffffffffffffffffffffffffffffffffffffff1603611fc55781611fc290614d5c565b91505b806001019050611f39565b5060008167ffffffffffffffff811115611fed57611fec6140f7565b5b60405190808252806020026020018201604052801561202657816020015b612013613e9c565b81526020019060019003908161200b5790505b5090506000805b600954811015612281573373ffffffffffffffffffffffffffffffffffffffff16600c600060018461205f9190614da4565b815260200190815260200160002060010160009054906101000a900473ffffffffffffffffffffffffffffffffffffffff1673ffffffffffffffffffffffffffffffffffffffff16036122765760006001826120bb9190614da4565b9050600c60008281526020019081526020016000206040518060e0016040529081600082015481526020016001820160009054906101000a900473ffffffffffffffffffffffffffffffffffffffff1673ffffffffffffffffffffffffffffffffffffffff1673ffffffffffffffffffffffffffffffffffffffff1681526020016002820160009054906101000a900473ffffffffffffffffffffffffffffffffffffffff1673ffffffffffffffffffffffffffffffffffffffff1673ffffffffffffffffffffffffffffffffffffffff1681526020016003820160009054906101000a900473ffffffffffffffffffffffffffffffffffffffff1673ffffffffffffffffffffffffffffffffffffffff1673ffffffffffffffffffffffffffffffffffffffff168152602001600482015481526020016005820160009054906101000a90046bffffffffffffffffffffffff166bffffffffffffffffffffffff166bffffffffffffffffffffffff16815260200160058201600c9054906101000a900460ff16151515158152505084848151811061225d5761225c61509e565b5b60200260200101819052508261227290614d5c565b9250505b80600101905061202d565b5081935050505090565b3373ffffffffffffffffffffffffffffffffffffffff16600c600084815260200190815260200160002060020160009054906101000a900473ffffffffffffffffffffffffffffffffffffffff1673ffffffffffffffffffffffffffffffffffffffff161461232f576040517f08c379a000000000000000000000000000000000000000000000000000000000815260040161232690615258565b60405180910390fd5b600d543414612373576040517f08c379a000000000000000000000000000000000000000000000000000000000815260040161236a906152ea565b60405180910390fd5b6000600c6000848152602001908152602001600020600501600c6101000a81548160ff02191690831515021790555080600c60008481526020019081526020016000206004018190555033600c600084815260200190815260200160002060010160006101000a81548173ffffffffffffffffffffffffffffffffffffffff021916908373ffffffffffffffffffffffffffffffffffffffff16021790555030600c600084815260200190815260200160002060020160006101000a81548173ffffffffffffffffffffffffffffffffffffffff021916908373ffffffffffffffffffffffffffffffffffffffff160217905550600a600081546124769061530a565b91905081905550612488333084612e8e565b5050565b6000600560008473ffffffffffffffffffffffffffffffffffffffff1673ffffffffffffffffffffffffffffffffffffffff16815260200190815260200160002060008373ffffffffffffffffffffffffffffffffffffffff1673ffffffffffffffffffffffffffffffffffffffff16815260200190815260200160002060009054906101000a900460ff16905092915050565b600c600083815260200190815260200160002060030160009054906101000a900473ffffffffffffffffffffffffffffffffffffffff1673ffffffffffffffffffffffffffffffffffffffff163373ffffffffffffffffffffffffffffffffffffffff16146125c4576040517f08c379a00000000000000000000000000000000000000000000000000000000081526004016125bb9061537f565b60405180910390fd5b6107d06bffffffffffffffffffffffff16816bffffffffffffffffffffffff161115612625576040517f08c379a000000000000000000000000000000000000000000000000000000000815260040161261c906153eb565b60405180910390fd5b61266682600c600085815260200190815260200160002060030160009054906101000a900473ffffffffffffffffffffffffffffffffffffffff1683612a20565b80600c600084815260200190815260200160002060050160006101000a8154816bffffffffffffffffffffffff02191690836bffffffffffffffffffffffff1602179055505050565b60007f2a55205a000000000000000000000000000000000000000000000000000000007bffffffffffffffffffffffffffffffffffffffffffffffffffffffff1916827bffffffffffffffffffffffffffffffffffffffffffffffffffffffff191614806127225750612721826136b5565b5b9050919050565b60006127336132f4565b6bffffffffffffffffffffffff16905080826bffffffffffffffffffffffff1611156127985781816040517f6f483d0900000000000000000000000000000000000000000000000000000000815260040161278f929190615446565b60405180910390fd5b600073ffffffffffffffffffffffffffffffffffffffff168373ffffffffffffffffffffffffffffffffffffffff160361280a5760006040517fb6d9900a0000000000000000000000000000000000000000000000000000000081526004016128019190614528565b60405180910390fd5b60405180604001604052808473ffffffffffffffffffffffffffffffffffffffff168152602001836bffffffffffffffffffffffff16815250600760008201518160000160006101000a81548173ffffffffffffffffffffffffffffffffffffffff021916908373ffffffffffffffffffffffffffffffffffffffff16021790555060208201518160000160146101000a8154816bffffffffffffffffffffffff02191690836bffffffffffffffffffffffff160217905550905050505050565b600073ffffffffffffffffffffffffffffffffffffffff168273ffffffffffffffffffffffffffffffffffffffff160361293d5760006040517f64a0ae920000000000000000000000000000000000000000000000000000000081526004016129349190614528565b60405180910390fd5b600061294b838360006130da565b9050600073ffffffffffffffffffffffffffffffffffffffff168173ffffffffffffffffffffffffffffffffffffffff16146129bf5760006040517f73c6ac6e0000000000000000000000000000000000000000000000000000000081526004016129b69190614528565b60405180910390fd5b505050565b806006600084815260200190815260200160002090816129e49190615611565b507ff8e1a15aba9398e019f0b49df1a4fde98ee17ae345cb5f6b5e2c27f5033e8ce782604051612a1491906142d6565b60405180910390a15050565b6000612a2a6132f4565b6bffffffffffffffffffffffff16905080826bffffffffffffffffffffffff161115612a91578382826040517fdfd1fc1b000000000000000000000000000000000000000000000000000000008152600401612a88939291906156e3565b60405180910390fd5b600073ffffffffffffffffffffffffffffffffffffffff168373ffffffffffffffffffffffffffffffffffffffff1603612b05578360006040517f969f0852000000000000000000000000000000000000000000000000000000008152600401612afc92919061571a565b60405180910390fd5b60405180604001604052808473ffffffffffffffffffffffffffffffffffffffff168152602001836bffffffffffffffffffffffff168152506008600086815260200190815260200160002060008201518160000160006101000a81548173ffffffffffffffffffffffffffffffffffffffff021916908373ffffffffffffffffffffffffffffffffffffffff16021790555060208201518160000160146101000a8154816bffffffffffffffffffffffff02191690836bffffffffffffffffffffffff16021790555090505050505050565b60008211612c1b576040517f08c379a0000000000000000000000000000000000000000000000000000000008152600401612c129061578f565b60405180910390fd5b600d543414612c5f576040517f08c379a0000000000000000000000000000000000000000000000000000000008152600401612c5690615821565b60405180910390fd5b6040518060e001604052808481526020013373ffffffffffffffffffffffffffffffffffffffff1681526020013073ffffffffffffffffffffffffffffffffffffffff1681526020013373ffffffffffffffffffffffffffffffffffffffff168152602001838152602001826bffffffffffffffffffffffff16815260200160001515815250600c60008581526020019081526020016000206000820151816000015560208201518160010160006101000a81548173ffffffffffffffffffffffffffffffffffffffff021916908373ffffffffffffffffffffffffffffffffffffffff16021790555060408201518160020160006101000a81548173ffffffffffffffffffffffffffffffffffffffff021916908373ffffffffffffffffffffffffffffffffffffffff16021790555060608201518160030160006101000a81548173ffffffffffffffffffffffffffffffffffffffff021916908373ffffffffffffffffffffffffffffffffffffffff1602179055506080820151816004015560a08201518160050160006101000a8154816bffffffffffffffffffffffff02191690836bffffffffffffffffffffffff16021790555060c082015181600501600c6101000a81548160ff021916908315150217905550905050612e46333085612e8e565b827ff970b996312f89cdec53f15049a8736b81d60e883219b1b8735a0e4ed169119d33303386866000604051612e8196959493929190615841565b60405180910390a2505050565b600073ffffffffffffffffffffffffffffffffffffffff168273ffffffffffffffffffffffffffffffffffffffff1603612f005760006040517f64a0ae92000000000000000000000000000000000000000000000000000000008152600401612ef79190614528565b60405180910390fd5b6000612f0e838360006130da565b9050600073ffffffffffffffffffffffffffffffffffffffff168173ffffffffffffffffffffffffffffffffffffffff1603612f8157816040517f7e273289000000000000000000000000000000000000000000000000000000008152600401612f7891906142d6565b60405180910390fd5b8373ffffffffffffffffffffffffffffffffffffffff168173ffffffffffffffffffffffffffffffffffffffff1614612ff5578382826040517f64283d7b000000000000000000000000000000000000000000000000000000008152600401612fec939291906150cd565b60405180910390fd5b50505050565b60008061300783613716565b9050600073ffffffffffffffffffffffffffffffffffffffff168173ffffffffffffffffffffffffffffffffffffffff160361307a57826040517f7e27328900000000000000000000000000000000000000000000000000000000815260040161307191906142d6565b60405180910390fd5b80915050919050565b60006004600083815260200190815260200160002060009054906101000a900473ffffffffffffffffffffffffffffffffffffffff169050919050565b600033905090565b6130d58383836001613753565b505050565b6000806130e684613716565b9050600073ffffffffffffffffffffffffffffffffffffffff168373ffffffffffffffffffffffffffffffffffffffff161461312857613127818486613918565b5b600073ffffffffffffffffffffffffffffffffffffffff168173ffffffffffffffffffffffffffffffffffffffff16146131b95761316a600085600080613753565b6001600360008373ffffffffffffffffffffffffffffffffffffffff1673ffffffffffffffffffffffffffffffffffffffff168152602001908152602001600020600082825403925050819055505b600073ffffffffffffffffffffffffffffffffffffffff168573ffffffffffffffffffffffffffffffffffffffff161461323c576001600360008773ffffffffffffffffffffffffffffffffffffffff1673ffffffffffffffffffffffffffffffffffffffff168152602001908152602001600020600082825401925050819055505b846002600086815260200190815260200160002060006101000a81548173ffffffffffffffffffffffffffffffffffffffff021916908373ffffffffffffffffffffffffffffffffffffffff160217905550838573ffffffffffffffffffffffffffffffffffffffff168273ffffffffffffffffffffffffffffffffffffffff167fddf252ad1be2c89b69c2b068fc378daa952ba7f163c4a11628f55a4df523b3ef60405160405180910390a4809150509392505050565b6000612710905090565b60008261330b85846139dc565b1490509392505050565b600073ffffffffffffffffffffffffffffffffffffffff168273ffffffffffffffffffffffffffffffffffffffff160361338657816040517f5b08ba1800000000000000000000000000000000000000000000000000000000815260040161337d9190614528565b60405180910390fd5b80600560008573ffffffffffffffffffffffffffffffffffffffff1673ffffffffffffffffffffffffffffffffffffffff16815260200190815260200160002060008473ffffffffffffffffffffffffffffffffffffffff1673ffffffffffffffffffffffffffffffffffffffff16815260200190815260200160002060006101000a81548160ff0219169083151502179055508173ffffffffffffffffffffffffffffffffffffffff168373ffffffffffffffffffffffffffffffffffffffff167f17307eab39ab6107e8899845ad3d59bd9653f200f220920489ca2b5937696c31836040516134779190613fdf565b60405180910390a3505050565b60008373ffffffffffffffffffffffffffffffffffffffff163b111561362e578273ffffffffffffffffffffffffffffffffffffffff1663150b7a02868685856040518563ffffffff1660e01b81526004016134e394939291906158f7565b6020604051808303816000875af192505050801561351f57506040513d601f19601f8201168201806040525081019061351c9190615958565b60015b6135a3573d806000811461354f576040519150601f19603f3d011682016040523d82523d6000602084013e613554565b606091505b50600081510361359b57836040517f64a0ae920000000000000000000000000000000000000000000000000000000081526004016135929190614528565b60405180910390fd5b805181602001fd5b63150b7a0260e01b7bffffffffffffffffffffffffffffffffffffffffffffffffffffffff1916817bffffffffffffffffffffffffffffffffffffffffffffffffffffffff19161461362c57836040517f64a0ae920000000000000000000000000000000000000000000000000000000081526004016136239190614528565b60405180910390fd5b505b5050505050565b606060405180602001604052806000815250905090565b606061365782612ffb565b506000613662613635565b9050600081511161368257604051806020016040528060008152506136ad565b8061368c84613a2c565b60405160200161369d9291906151e8565b6040516020818303038152906040525b915050919050565b6000634906490660e01b7bffffffffffffffffffffffffffffffffffffffffffffffffffffffff1916827bffffffffffffffffffffffffffffffffffffffffffffffffffffffff1916148061370f575061370e82613afa565b5b9050919050565b60006002600083815260200190815260200160002060009054906101000a900473ffffffffffffffffffffffffffffffffffffffff169050919050565b808061378c5750600073ffffffffffffffffffffffffffffffffffffffff168273ffffffffffffffffffffffffffffffffffffffff1614155b156138c057600061379c84612ffb565b9050600073ffffffffffffffffffffffffffffffffffffffff168373ffffffffffffffffffffffffffffffffffffffff161415801561380757508273ffffffffffffffffffffffffffffffffffffffff168173ffffffffffffffffffffffffffffffffffffffff1614155b801561381a5750613818818461248c565b155b1561385c57826040517fa9fbf51f0000000000000000000000000000000000000000000000000000000081526004016138539190614528565b60405180910390fd5b81156138be57838573ffffffffffffffffffffffffffffffffffffffff168273ffffffffffffffffffffffffffffffffffffffff167f8c5be1e5ebec7d5bd14f71427d1e84f3dd0314c0f7b2291e5b200ac8c7c3b92560405160405180910390a45b505b836004600085815260200190815260200160002060006101000a81548173ffffffffffffffffffffffffffffffffffffffff021916908373ffffffffffffffffffffffffffffffffffffffff16021790555050505050565b613923838383613bdc565b6139d757600073ffffffffffffffffffffffffffffffffffffffff168373ffffffffffffffffffffffffffffffffffffffff160361399857806040517f7e27328900000000000000000000000000000000000000000000000000000000815260040161398f91906142d6565b60405180910390fd5b81816040517f177e802f0000000000000000000000000000000000000000000000000000000081526004016139ce9291906147c3565b60405180910390fd5b505050565b60008082905060005b8451811015613a2157613a1282868381518110613a0557613a0461509e565b5b6020026020010151613c9d565b915080806001019150506139e5565b508091505092915050565b606060006001613a3b84613cc8565b01905060008167ffffffffffffffff811115613a5a57613a596140f7565b5b6040519080825280601f01601f191660200182016040528015613a8c5781602001600182028036833780820191505090505b509050600082602001820190505b600115613aef578080600190039150507f3031323334353637383961626364656600000000000000000000000000000000600a86061a8153600a8581613ae357613ae2614f4c565b5b04945060008503613a9a575b819350505050919050565b60007f80ac58cd000000000000000000000000000000000000000000000000000000007bffffffffffffffffffffffffffffffffffffffffffffffffffffffff1916827bffffffffffffffffffffffffffffffffffffffffffffffffffffffff19161480613bc557507f5b5e139f000000000000000000000000000000000000000000000000000000007bffffffffffffffffffffffffffffffffffffffffffffffffffffffff1916827bffffffffffffffffffffffffffffffffffffffffffffffffffffffff1916145b80613bd55750613bd482613e1b565b5b9050919050565b60008073ffffffffffffffffffffffffffffffffffffffff168373ffffffffffffffffffffffffffffffffffffffff1614158015613c9457508273ffffffffffffffffffffffffffffffffffffffff168473ffffffffffffffffffffffffffffffffffffffff161480613c555750613c54848461248c565b5b80613c9357508273ffffffffffffffffffffffffffffffffffffffff16613c7b83613083565b73ffffffffffffffffffffffffffffffffffffffff16145b5b90509392505050565b6000818310613cb557613cb08284613e85565b613cc0565b613cbf8383613e85565b5b905092915050565b600080600090507a184f03e93ff9f4daa797ed6e38ed64bf6a1f0100000000000000008310613d26577a184f03e93ff9f4daa797ed6e38ed64bf6a1f0100000000000000008381613d1c57613d1b614f4c565b5b0492506040810190505b6d04ee2d6d415b85acef81000000008310613d63576d04ee2d6d415b85acef81000000008381613d5957613d58614f4c565b5b0492506020810190505b662386f26fc100008310613d9257662386f26fc100008381613d8857613d87614f4c565b5b0492506010810190505b6305f5e1008310613dbb576305f5e1008381613db157613db0614f4c565b5b0492506008810190505b6127108310613de0576127108381613dd657613dd5614f4c565b5b0492506004810190505b60648310613e035760648381613df957613df8614f4c565b5b0492506002810190505b600a8310613e12576001810190505b80915050919050565b60007f01ffc9a7000000000000000000000000000000000000000000000000000000007bffffffffffffffffffffffffffffffffffffffffffffffffffffffff1916827bffffffffffffffffffffffffffffffffffffffffffffffffffffffff1916149050919050565b600082600052816020526040600020905092915050565b6040518060e0016040528060008152602001600073ffffffffffffffffffffffffffffffffffffffff168152602001600073ffffffffffffffffffffffffffffffffffffffff168152602001600073ffffffffffffffffffffffffffffffffffffffff1681526020016000815260200160006bffffffffffffffffffffffff1681526020016000151581525090565b6000604051905090565b600080fd5b600080fd5b60007fffffffff0000000000000000000000000000000000000000000000000000000082169050919050565b613f7481613f3f565b8114613f7f57600080fd5b50565b600081359050613f9181613f6b565b92915050565b600060208284031215613fad57613fac613f35565b5b6000613fbb84828501613f82565b91505092915050565b60008115159050919050565b613fd981613fc4565b82525050565b6000602082019050613ff46000830184613fd0565b92915050565b600073ffffffffffffffffffffffffffffffffffffffff82169050919050565b600061402582613ffa565b9050919050565b6140358161401a565b811461404057600080fd5b50565b6000813590506140528161402c565b92915050565b60006bffffffffffffffffffffffff82169050919050565b61407981614058565b811461408457600080fd5b50565b60008135905061409681614070565b92915050565b600080604083850312156140b3576140b2613f35565b5b60006140c185828601614043565b92505060206140d285828601614087565b9150509250929050565b600080fd5b600080fd5b6000601f19601f8301169050919050565b7f4e487b7100000000000000000000000000000000000000000000000000000000600052604160045260246000fd5b61412f826140e6565b810181811067ffffffffffffffff8211171561414e5761414d6140f7565b5b80604052505050565b6000614161613f2b565b905061416d8282614126565b919050565b600067ffffffffffffffff82111561418d5761418c6140f7565b5b614196826140e6565b9050602081019050919050565b82818337600083830152505050565b60006141c56141c084614172565b614157565b9050828152602081018484840111156141e1576141e06140e1565b5b6141ec8482856141a3565b509392505050565b600082601f830112614209576142086140dc565b5b81356142198482602086016141b2565b91505092915050565b6000819050919050565b61423581614222565b811461424057600080fd5b50565b6000813590506142528161422c565b92915050565b60008060006060848603121561427157614270613f35565b5b600084013567ffffffffffffffff81111561428f5761428e613f3a565b5b61429b868287016141f4565b93505060206142ac86828701614243565b92505060406142bd86828701614087565b9150509250925092565b6142d081614222565b82525050565b60006020820190506142eb60008301846142c7565b92915050565b600067ffffffffffffffff82111561430c5761430b6140f7565b5b602082029050602081019050919050565b600080fd5b6000819050919050565b61433581614322565b811461434057600080fd5b50565b6000813590506143528161432c565b92915050565b600061436b614366846142f1565b614157565b9050808382526020820190506020840283018581111561438e5761438d61431d565b5b835b818110156143b757806143a38882614343565b845260208401935050602081019050614390565b5050509392505050565b600082601f8301126143d6576143d56140dc565b5b81356143e6848260208601614358565b91505092915050565b6000806040838503121561440657614405613f35565b5b600061441485828601614243565b925050602083013567ffffffffffffffff81111561443557614434613f3a565b5b614441858286016143c1565b9150509250929050565b600081519050919050565b600082825260208201905092915050565b60005b8381101561448557808201518184015260208101905061446a565b60008484015250505050565b600061449c8261444b565b6144a68185614456565b93506144b6818560208601614467565b6144bf816140e6565b840191505092915050565b600060208201905081810360008301526144e48184614491565b905092915050565b60006020828403121561450257614501613f35565b5b600061451084828501614243565b91505092915050565b6145228161401a565b82525050565b600060208201905061453d6000830184614519565b92915050565b6000806040838503121561455a57614559613f35565b5b600061456885828601614043565b925050602061457985828601614243565b9150509250929050565b600081519050919050565b600082825260208201905092915050565b6000819050602082019050919050565b6145b881614222565b82525050565b60006145c982613ffa565b9050919050565b6145d9816145be565b82525050565b6145e881614058565b82525050565b6145f781613fc4565b82525050565b60e08201600082015161461360008501826145af565b50602082015161462660208501826145d0565b50604082015161463960408501826145d0565b50606082015161464c60608501826145d0565b50608082015161465f60808501826145af565b5060a082015161467260a08501826145df565b5060c082015161468560c08501826145ee565b50505050565b600061469783836145fd565b60e08301905092915050565b6000602082019050919050565b60006146bb82614583565b6146c5818561458e565b93506146d08361459f565b8060005b838110156147015781516146e8888261468b565b97506146f3836146a3565b9250506001810190506146d4565b5085935050505092915050565b6000602082019050818103600083015261472881846146b0565b905092915050565b60008060006060848603121561474957614748613f35565b5b600061475786828701614043565b935050602061476886828701614043565b925050604061477986828701614243565b9150509250925092565b6000806040838503121561479a57614799613f35565b5b60006147a885828601614243565b92505060206147b985828601614243565b9150509250929050565b60006040820190506147d86000830185614519565b6147e560208301846142c7565b9392505050565b6147f581614322565b82525050565b600060208201905061481060008301846147ec565b92915050565b61481f81613fc4565b811461482a57600080fd5b50565b60008135905061483c81614816565b92915050565b6000806040838503121561485957614858613f35565b5b600061486785828601614243565b92505060206148788582860161482d565b9150509250929050565b6000806040838503121561489957614898613f35565b5b60006148a785828601614243565b92505060206148b885828601614043565b9150509250929050565b6000806000606084860312156148db576148da613f35565b5b600084013567ffffffffffffffff8111156148f9576148f8613f3a565b5b614905868287016143c1565b935050602061491686828701614043565b925050604061492786828701614243565b9150509250925092565b60006020828403121561494757614946613f35565b5b600061495584828501614043565b91505092915050565b60006020828403121561497457614973613f35565b5b600061498284828501614343565b91505092915050565b614994816145be565b82525050565b60006020820190506149af600083018461498b565b92915050565b600080604083850312156149cc576149cb613f35565b5b60006149da85828601614043565b92505060206149eb8582860161482d565b9150509250929050565b600067ffffffffffffffff821115614a1057614a0f6140f7565b5b614a19826140e6565b9050602081019050919050565b6000614a39614a34846149f5565b614157565b905082815260208101848484011115614a5557614a546140e1565b5b614a608482856141a3565b509392505050565b600082601f830112614a7d57614a7c6140dc565b5b8135614a8d848260208601614a26565b91505092915050565b60008060008060808587031215614ab057614aaf613f35565b5b6000614abe87828801614043565b9450506020614acf87828801614043565b9350506040614ae087828801614243565b925050606085013567ffffffffffffffff811115614b0157614b00613f3a565b5b614b0d87828801614a68565b91505092959194509250565b614b2281614058565b82525050565b6000602082019050614b3d6000830184614b19565b92915050565b60008060408385031215614b5a57614b59613f35565b5b6000614b6885828601614043565b9250506020614b7985828601614043565b9150509250929050565b60008060408385031215614b9a57614b99613f35565b5b6000614ba885828601614243565b9250506020614bb985828601614087565b9150509250929050565b7f6f6e6c79206f776e65722063616e206368616e676520746865206c697374696e60008201527f6720707269636500000000000000000000000000000000000000000000000000602082015250565b6000614c1f602783614456565b9150614c2a82614bc3565b604082019050919050565b60006020820190508181036000830152614c4e81614c12565b9050919050565b7f4d617820726f79616c7479206973203230250000000000000000000000000000600082015250565b6000614c8b601283614456565b9150614c9682614c55565b602082019050919050565b60006020820190508181036000830152614cba81614c7e565b9050919050565b7f43726561746f722063616e6e6f74206265207a65726f20616464726573730000600082015250565b6000614cf7601e83614456565b9150614d0282614cc1565b602082019050919050565b60006020820190508181036000830152614d2681614cea565b9050919050565b7f4e487b7100000000000000000000000000000000000000000000000000000000600052601160045260246000fd5b6000614d6782614222565b91507fffffffffffffffffffffffffffffffffffffffffffffffffffffffffffffffff8203614d9957614d98614d2d565b5b600182019050919050565b6000614daf82614222565b9150614dba83614222565b9250828201905080821115614dd257614dd1614d2d565b5b92915050565b7f496e73756666696369656e74207061796d656e7420617420726f79616c747900600082015250565b6000614e0e601f83614456565b9150614e1982614dd8565b602082019050919050565b60006020820190508181036000830152614e3d81614e01565b9050919050565b7f496e73756666696369656e74207061796d656e7420666f72206e6f726d616c2060008201527f7573657200000000000000000000000000000000000000000000000000000000602082015250565b6000614ea0602483614456565b9150614eab82614e44565b604082019050919050565b60006020820190508181036000830152614ecf81614e93565b9050919050565b6000614ee182614222565b9150614eec83614222565b9250828203905081811115614f0457614f03614d2d565b5b92915050565b6000614f1582614222565b9150614f2083614222565b9250828202614f2e81614222565b91508282048414831517614f4557614f44614d2d565b5b5092915050565b7f4e487b7100000000000000000000000000000000000000000000000000000000600052601260045260246000fd5b6000614f8682614222565b9150614f9183614222565b925082614fa157614fa0614f4c565b5b828204905092915050565b7f496e73756666696369656e74207061796d656e7420666f72207669702075736560008201527f7200000000000000000000000000000000000000000000000000000000000000602082015250565b6000615008602183614456565b915061501382614fac565b604082019050919050565b6000602082019050818103600083015261503781614ffb565b9050919050565b7f4e487b7100000000000000000000000000000000000000000000000000000000600052602260045260246000fd5b6000600282049050600182168061508557607f821691505b6020821081036150985761509761503e565b5b50919050565b7f4e487b7100000000000000000000000000000000000000000000000000000000600052603260045260246000fd5b60006060820190506150e26000830186614519565b6150ef60208301856142c7565b6150fc6040830184614519565b949350505050565b7f4f6e6c792043726561746f7220626520616c6c6f77656420746f20616d656e64600082015250565b600061513a602083614456565b915061514582615104565b602082019050919050565b600060208201905081810360008301526151698161512d565b9050919050565b6000819050919050565b61518b61518682614322565b615170565b82525050565b600061519d828461517a565b60208201915081905092915050565b600081905092915050565b60006151c28261444b565b6151cc81856151ac565b93506151dc818560208601614467565b80840191505092915050565b60006151f482856151b7565b915061520082846151b7565b91508190509392505050565b7f796f7520617265206e6f7420746865206974656d206f776e6572000000000000600082015250565b6000615242601a83614456565b915061524d8261520c565b602082019050919050565b6000602082019050818103600083015261527181615235565b9050919050565b7f5072696365206d75737420626520657175616c20746f206c697374696e67207060008201527f7269636500000000000000000000000000000000000000000000000000000000602082015250565b60006152d4602483614456565b91506152df82615278565b604082019050919050565b60006020820190508181036000830152615303816152c7565b9050919050565b600061531582614222565b91506000820361532857615327614d2d565b5b600182039050919050565b7f4f6e6c792063726561746f720000000000000000000000000000000000000000600082015250565b6000615369600c83614456565b915061537482615333565b602082019050919050565b600060208201905081810360008301526153988161535c565b9050919050565b7f4d61782032302500000000000000000000000000000000000000000000000000600082015250565b60006153d5600783614456565b91506153e08261539f565b602082019050919050565b60006020820190508181036000830152615404816153c8565b9050919050565b6000819050919050565b600061543061542b61542684614058565b61540b565b614222565b9050919050565b61544081615415565b82525050565b600060408201905061545b6000830185615437565b61546860208301846142c7565b9392505050565b60008190508160005260206000209050919050565b60006020601f8301049050919050565b600082821b905092915050565b6000600883026154d17fffffffffffffffffffffffffffffffffffffffffffffffffffffffffffffffff82615494565b6154db8683615494565b95508019841693508086168417925050509392505050565b600061550e61550961550484614222565b61540b565b614222565b9050919050565b6000819050919050565b615528836154f3565b61553c61553482615515565b8484546154a1565b825550505050565b600090565b615551615544565b61555c81848461551f565b505050565b5b8181101561558057615575600082615549565b600181019050615562565b5050565b601f8211156155c5576155968161546f565b61559f84615484565b810160208510156155ae578190505b6155c26155ba85615484565b830182615561565b50505b505050565b600082821c905092915050565b60006155e8600019846008026155ca565b1980831691505092915050565b600061560183836155d7565b9150826002028217905092915050565b61561a8261444b565b67ffffffffffffffff811115615633576156326140f7565b5b61563d825461506d565b615648828285615584565b600060209050601f83116001811461567b5760008415615669578287015190505b61567385826155f5565b8655506156db565b601f1984166156898661546f565b60005b828110156156b15784890151825560018201915060208501945060208101905061568c565b868310156156ce57848901516156ca601f8916826155d7565b8355505b6001600288020188555050505b505050505050565b60006060820190506156f860008301866142c7565b6157056020830185615437565b61571260408301846142c7565b949350505050565b600060408201905061572f60008301856142c7565b61573c6020830184614519565b9392505050565b7f7072696365206d757374206265206174206c6561737420310000000000000000600082015250565b6000615779601883614456565b915061578482615743565b602082019050919050565b600060208201905081810360008301526157a88161576c565b9050919050565b7f7072696365206d75737420626520657175616c20746f206c697374696e67207060008201527f7269636500000000000000000000000000000000000000000000000000000000602082015250565b600061580b602483614456565b9150615816826157af565b604082019050919050565b6000602082019050818103600083015261583a816157fe565b9050919050565b600060c0820190506158566000830189614519565b6158636020830188614519565b6158706040830187614519565b61587d60608301866142c7565b61588a6080830185614b19565b61589760a0830184613fd0565b979650505050505050565b600081519050919050565b600082825260208201905092915050565b60006158c9826158a2565b6158d381856158ad565b93506158e3818560208601614467565b6158ec816140e6565b840191505092915050565b600060808201905061590c6000830187614519565b6159196020830186614519565b61592660408301856142c7565b818103606083015261593881846158be565b905095945050505050565b60008151905061595281613f6b565b92915050565b60006020828403121561596e5761596d613f35565b5b600061597c84828501615943565b9150509291505056fea264697066735822122075b93e1db43d616d9fa565bf5c6fb6d8ab90b5d77ce97c987667739afa04b6bc64736f6c634300081c0033",
  "linkReferences": {},
  "deployedLinkReferences": {}
}