{
  "_format": "hh-sol-artifact-1",
  "contractName": "NFTMarketplace",
  "sourceName": "contracts/NFTMarketplace.sol",
  "abi": [
    {
      "inputs": [],
      "stateMutability": "nonpayable",
      "type": "constructor"
    },
    {
      "inputs": [
        {
          "internalType": "address",
          "name": "sender",
          "type": "address"
        },
        {
          "internalType": "uint256",
          "name": "tokenId",
          "type": "uint256"
        },
        {
          "internalType": "address",
          "name": "owner",
          "type": "address"
        }
      ],
      "name": "ERC721IncorrectOwner",
      "type": "error"
    },
    {
      "inputs": [
        {
          "internalType": "address",
          "name": "operator",
          "type": "address"
        },
        {
          "internalType": "uint256",
          "name": "tokenId",
          "type": "uint256"
        }
      ],
      "name": "ERC721InsufficientApproval",
      "type": "error"
    },
    {
      "inputs": [
        {
          "internalType": "address",
          "name": "approver",
          "type": "address"
        }
      ],
      "name": "ERC721InvalidApprover",
      "type": "error"
    },
    {
      "inputs": [
        {
          "internalType": "address",
          "name": "operator",
          "type": "address"
        }
      ],
      "name": "ERC721InvalidOperator",
      "type": "error"
    },
    {
      "inputs": [
        {
          "internalType": "address",
          "name": "owner",
          "type": "address"
        }
      ],
      "name": "ERC721InvalidOwner",
      "type": "error"
    },
    {
      "inputs": [
        {
          "internalType": "address",
          "name": "receiver",
          "type": "address"
        }
      ],
      "name": "ERC721InvalidReceiver",
      "type": "error"
    },
    {
      "inputs": [
        {
          "internalType": "address",
          "name": "sender",
          "type": "address"
        }
      ],
      "name": "ERC721InvalidSender",
      "type": "error"
    },
    {
      "inputs": [
        {
          "internalType": "uint256",
          "name": "tokenId",
          "type": "uint256"
        }
      ],
      "name": "ERC721NonexistentToken",
      "type": "error"
    },
    {
      "anonymous": false,
      "inputs": [
        {
          "indexed": true,
          "internalType": "address",
          "name": "owner",
          "type": "address"
        },
        {
          "indexed": true,
          "internalType": "address",
          "name": "approved",
          "type": "address"
        },
        {
          "indexed": true,
          "internalType": "uint256",
          "name": "tokenId",
          "type": "uint256"
        }
      ],
      "name": "Approval",
      "type": "event"
    },
    {
      "anonymous": false,
      "inputs": [
        {
          "indexed": true,
          "internalType": "address",
          "name": "owner",
          "type": "address"
        },
        {
          "indexed": true,
          "internalType": "address",
          "name": "operator",
          "type": "address"
        },
        {
          "indexed": false,
          "internalType": "bool",
          "name": "approved",
          "type": "bool"
        }
      ],
      "name": "ApprovalForAll",
      "type": "event"
    },
    {
      "anonymous": false,
      "inputs": [
        {
          "indexed": false,
          "internalType": "uint256",
          "name": "_fromTokenId",
          "type": "uint256"
        },
        {
          "indexed": false,
          "internalType": "uint256",
          "name": "_toTokenId",
          "type": "uint256"
        }
      ],
      "name": "BatchMetadataUpdate",
      "type": "event"
    },
    {
      "anonymous": false,
      "inputs": [
        {
          "indexed": false,
          "internalType": "uint256",
          "name": "_tokenId",
          "type": "uint256"
        }
      ],
      "name": "MetadataUpdate",
      "type": "event"
    },
    {
      "anonymous": false,
      "inputs": [
        {
          "indexed": true,
          "internalType": "address",
          "name": "from",
          "type": "address"
        },
        {
          "indexed": true,
          "internalType": "address",
          "name": "to",
          "type": "address"
        },
        {
          "indexed": true,
          "internalType": "uint256",
          "name": "tokenId",
          "type": "uint256"
        }
      ],
      "name": "Transfer",
      "type": "event"
    },
    {
      "anonymous": false,
      "inputs": [
        {
          "indexed": true,
          "internalType": "uint256",
          "name": "tokenId",
          "type": "uint256"
        },
        {
          "indexed": false,
          "internalType": "address",
          "name": "seller",
          "type": "address"
        },
        {
          "indexed": false,
          "internalType": "address",
          "name": "owner",
          "type": "address"
        },
        {
          "indexed": false,
          "internalType": "uint256",
          "name": "price",
          "type": "uint256"
        },
        {
          "indexed": false,
          "internalType": "bool",
          "name": "sold",
          "type": "bool"
        }
      ],
      "name": "idMarketItemCreated",
      "type": "event"
    },
    {
      "inputs": [
        {
          "internalType": "address",
          "name": "to",
          "type": "address"
        },
        {
          "internalType": "uint256",
          "name": "tokenId",
          "type": "uint256"
        }
      ],
      "name": "approve",
      "outputs": [],
      "stateMutability": "nonpayable",
      "type": "function"
    },
    {
      "inputs": [
        {
          "internalType": "address",
          "name": "owner",
          "type": "address"
        }
      ],
      "name": "balanceOf",
      "outputs": [
        {
          "internalType": "uint256",
          "name": "",
          "type": "uint256"
        }
      ],
      "stateMutability": "view",
      "type": "function"
    },
    {
      "inputs": [
        {
          "internalType": "uint256",
          "name": "tokenId",
          "type": "uint256"
        }
      ],
      "name": "createMarketSale",
      "outputs": [],
      "stateMutability": "payable",
      "type": "function"
    },
    {
      "inputs": [
        {
          "internalType": "string",
          "name": "tokenURI",
          "type": "string"
        },
        {
          "internalType": "uint256",
          "name": "price",
          "type": "uint256"
        }
      ],
      "name": "createToken",
      "outputs": [
        {
          "internalType": "uint256",
          "name": "",
          "type": "uint256"
        }
      ],
      "stateMutability": "payable",
      "type": "function"
    },
    {
      "inputs": [],
      "name": "fetchItemListed",
      "outputs": [
        {
          "components": [
            {
              "internalType": "uint256",
              "name": "tokenId",
              "type": "uint256"
            },
            {
              "internalType": "address payable",
              "name": "seller",
              "type": "address"
            },
            {
              "internalType": "address payable",
              "name": "owner",
              "type": "address"
            },
            {
              "internalType": "uint256",
              "name": "price",
              "type": "uint256"
            },
            {
              "internalType": "bool",
              "name": "sold",
              "type": "bool"
            }
          ],
          "internalType": "struct NFTMarketplace.MarketItem[]",
          "name": "",
          "type": "tuple[]"
        }
      ],
      "stateMutability": "view",
      "type": "function"
    },
    {
      "inputs": [],
      "name": "fetchMarketItem",
      "outputs": [
        {
          "components": [
            {
              "internalType": "uint256",
              "name": "tokenId",
              "type": "uint256"
            },
            {
              "internalType": "address payable",
              "name": "seller",
              "type": "address"
            },
            {
              "internalType": "address payable",
              "name": "owner",
              "type": "address"
            },
            {
              "internalType": "uint256",
              "name": "price",
              "type": "uint256"
            },
            {
              "internalType": "bool",
              "name": "sold",
              "type": "bool"
            }
          ],
          "internalType": "struct NFTMarketplace.MarketItem[]",
          "name": "",
          "type": "tuple[]"
        }
      ],
      "stateMutability": "view",
      "type": "function"
    },
    {
      "inputs": [],
      "name": "fetchMyNFT",
      "outputs": [
        {
          "components": [
            {
              "internalType": "uint256",
              "name": "tokenId",
              "type": "uint256"
            },
            {
              "internalType": "address payable",
              "name": "seller",
              "type": "address"
            },
            {
              "internalType": "address payable",
              "name": "owner",
              "type": "address"
            },
            {
              "internalType": "uint256",
              "name": "price",
              "type": "uint256"
            },
            {
              "internalType": "bool",
              "name": "sold",
              "type": "bool"
            }
          ],
          "internalType": "struct NFTMarketplace.MarketItem[]",
          "name": "",
          "type": "tuple[]"
        }
      ],
      "stateMutability": "view",
      "type": "function"
    },
    {
      "inputs": [
        {
          "internalType": "uint256",
          "name": "tokenId",
          "type": "uint256"
        }
      ],
      "name": "getApproved",
      "outputs": [
        {
          "internalType": "address",
          "name": "",
          "type": "address"
        }
      ],
      "stateMutability": "view",
      "type": "function"
    },
    {
      "inputs": [],
      "name": "getListingPrice",
      "outputs": [
        {
          "internalType": "uint256",
          "name": "",
          "type": "uint256"
        }
      ],
      "stateMutability": "view",
      "type": "function"
    },
    {
      "inputs": [
        {
          "internalType": "address",
          "name": "owner",
          "type": "address"
        },
        {
          "internalType": "address",
          "name": "operator",
          "type": "address"
        }
      ],
      "name": "isApprovedForAll",
      "outputs": [
        {
          "internalType": "bool",
          "name": "",
          "type": "bool"
        }
      ],
      "stateMutability": "view",
      "type": "function"
    },
    {
      "inputs": [],
      "name": "name",
      "outputs": [
        {
          "internalType": "string",
          "name": "",
          "type": "string"
        }
      ],
      "stateMutability": "view",
      "type": "function"
    },
    {
      "inputs": [
        {
          "internalType": "uint256",
          "name": "tokenId",
          "type": "uint256"
        }
      ],
      "name": "ownerOf",
      "outputs": [
        {
          "internalType": "address",
          "name": "",
          "type": "address"
        }
      ],
      "stateMutability": "view",
      "type": "function"
    },
    {
      "inputs": [
        {
          "internalType": "uint256",
          "name": "tokenId",
          "type": "uint256"
        },
        {
          "internalType": "uint256",
          "name": "price",
          "type": "uint256"
        }
      ],
      "name": "resellToken",
      "outputs": [],
      "stateMutability": "payable",
      "type": "function"
    },
    {
      "inputs": [
        {
          "internalType": "address",
          "name": "from",
          "type": "address"
        },
        {
          "internalType": "address",
          "name": "to",
          "type": "address"
        },
        {
          "internalType": "uint256",
          "name": "tokenId",
          "type": "uint256"
        }
      ],
      "name": "safeTransferFrom",
      "outputs": [],
      "stateMutability": "nonpayable",
      "type": "function"
    },
    {
      "inputs": [
        {
          "internalType": "address",
          "name": "from",
          "type": "address"
        },
        {
          "internalType": "address",
          "name": "to",
          "type": "address"
        },
        {
          "internalType": "uint256",
          "name": "tokenId",
          "type": "uint256"
        },
        {
          "internalType": "bytes",
          "name": "data",
          "type": "bytes"
        }
      ],
      "name": "safeTransferFrom",
      "outputs": [],
      "stateMutability": "nonpayable",
      "type": "function"
    },
    {
      "inputs": [
        {
          "internalType": "address",
          "name": "operator",
          "type": "address"
        },
        {
          "internalType": "bool",
          "name": "approved",
          "type": "bool"
        }
      ],
      "name": "setApprovalForAll",
      "outputs": [],
      "stateMutability": "nonpayable",
      "type": "function"
    },
    {
      "inputs": [
        {
          "internalType": "bytes4",
          "name": "interfaceId",
          "type": "bytes4"
        }
      ],
      "name": "supportsInterface",
      "outputs": [
        {
          "internalType": "bool",
          "name": "",
          "type": "bool"
        }
      ],
      "stateMutability": "view",
      "type": "function"
    },
    {
      "inputs": [],
      "name": "symbol",
      "outputs": [
        {
          "internalType": "string",
          "name": "",
          "type": "string"
        }
      ],
      "stateMutability": "view",
      "type": "function"
    },
    {
      "inputs": [
        {
          "internalType": "uint256",
          "name": "tokenId",
          "type": "uint256"
        }
      ],
      "name": "tokenURI",
      "outputs": [
        {
          "internalType": "string",
          "name": "",
          "type": "string"
        }
      ],
      "stateMutability": "view",
      "type": "function"
    },
    {
      "inputs": [
        {
          "internalType": "address",
          "name": "from",
          "type": "address"
        },
        {
          "internalType": "address",
          "name": "to",
          "type": "address"
        },
        {
          "internalType": "uint256",
          "name": "tokenId",
          "type": "uint256"
        }
      ],
      "name": "transferFrom",
      "outputs": [],
      "stateMutability": "nonpayable",
      "type": "function"
    },
    {
      "inputs": [
        {
          "internalType": "uint256",
          "name": "changedListingPrice",
          "type": "uint256"
        }
      ],
      "name": "updateListingPrice",
      "outputs": [],
      "stateMutability": "payable",
      "type": "function"
    }
  ],
  "bytecode": "0x60806040526605543df729c000600b5534801561001b57600080fd5b506040518060400160405280600b81526020017f49204368696e67204e46540000000000000000000000000000000000000000008152506040518060400160405280600781526020017f494348494e47540000000000000000000000000000000000000000000000000081525081600090816100979190610340565b5080600190816100a79190610340565b50505033600960006101000a81548173ffffffffffffffffffffffffffffffffffffffff021916908373ffffffffffffffffffffffffffffffffffffffff160217905550610412565b600081519050919050565b7f4e487b7100000000000000000000000000000000000000000000000000000000600052604160045260246000fd5b7f4e487b7100000000000000000000000000000000000000000000000000000000600052602260045260246000fd5b6000600282049050600182168061017157607f821691505b6020821081036101845761018361012a565b5b50919050565b60008190508160005260206000209050919050565b60006020601f8301049050919050565b600082821b905092915050565b6000600883026101ec7fffffffffffffffffffffffffffffffffffffffffffffffffffffffffffffffff826101af565b6101f686836101af565b95508019841693508086168417925050509392505050565b6000819050919050565b6000819050919050565b600061023d6102386102338461020e565b610218565b61020e565b9050919050565b6000819050919050565b61025783610222565b61026b61026382610244565b8484546101bc565b825550505050565b600090565b610280610273565b61028b81848461024e565b505050565b5b818110156102af576102a4600082610278565b600181019050610291565b5050565b601f8211156102f4576102c58161018a565b6102ce8461019f565b810160208510156102dd578190505b6102f16102e98561019f565b830182610290565b50505b505050565b600082821c905092915050565b6000610317600019846008026102f9565b1980831691505092915050565b60006103308383610306565b9150826002028217905092915050565b610349826100f0565b67ffffffffffffffff811115610362576103616100fb565b5b61036c8254610159565b6103778282856102b3565b600060209050601f8311600181146103aa5760008415610398578287015190505b6103a28582610324565b86555061040a565b601f1984166103b88661018a565b60005b828110156103e0578489015182556001820191506020850194506020810190506103bb565b868310156103fd57848901516103f9601f891682610306565b8355505b6001600288020188555050505b505050505050565b613c0e806104216000396000f3fe60806040526004361061012a5760003560e01c80638fafd021116100ab578063be9af5361161006f578063be9af536146103e8578063c18763f714610404578063c87b56dd1461042f578063e17914451461046c578063e219fc7514610497578063e985e9c5146104b35761012a565b80638fafd0211461032457806395d89b411461034f578063a22cb4651461037a578063ae677aa3146103a3578063b88d4fde146103bf5761012a565b806323b872dd116100f257806323b872dd1461022857806342842e0e146102515780636352211e1461027a57806370a08231146102b757806372b3b620146102f45761012a565b806301ffc9a71461012f57806306fdde031461016c578063081812fc14610197578063095ea7b3146101d457806312e85585146101fd575b600080fd5b34801561013b57600080fd5b5061015660048036038101906101519190612a89565b6104f0565b6040516101639190612ad1565b60405180910390f35b34801561017857600080fd5b50610181610551565b60405161018e9190612b7c565b60405180910390f35b3480156101a357600080fd5b506101be60048036038101906101b99190612bd4565b6105e3565b6040516101cb9190612c42565b60405180910390f35b3480156101e057600080fd5b506101fb60048036038101906101f69190612c89565b6105ff565b005b34801561020957600080fd5b50610212610615565b60405161021f9190612cd8565b60405180910390f35b34801561023457600080fd5b5061024f600480360381019061024a9190612cf3565b61061f565b005b34801561025d57600080fd5b5061027860048036038101906102739190612cf3565b610721565b005b34801561028657600080fd5b506102a1600480360381019061029c9190612bd4565b610741565b6040516102ae9190612c42565b60405180910390f35b3480156102c357600080fd5b506102de60048036038101906102d99190612d46565b610753565b6040516102eb9190612cd8565b60405180910390f35b61030e60048036038101906103099190612ea8565b61080d565b60405161031b9190612cd8565b60405180910390f35b34801561033057600080fd5b50610339610854565b604051610346919061305a565b60405180910390f35b34801561035b57600080fd5b50610364610a9f565b6040516103719190612b7c565b60405180910390f35b34801561038657600080fd5b506103a1600480360381019061039c91906130a8565b610b31565b005b6103bd60048036038101906103b89190612bd4565b610b47565b005b3480156103cb57600080fd5b506103e660048036038101906103e19190613189565b610be1565b005b61040260048036038101906103fd9190612bd4565b610c06565b005b34801561041057600080fd5b50610419610e44565b604051610426919061305a565b60405180910390f35b34801561043b57600080fd5b5061045660048036038101906104519190612bd4565b611102565b6040516104639190612b7c565b60405180910390f35b34801561047857600080fd5b50610481611215565b60405161048e919061305a565b60405180910390f35b6104b160048036038101906104ac919061320c565b6114d9565b005b3480156104bf57600080fd5b506104da60048036038101906104d5919061324c565b6116da565b6040516104e79190612ad1565b60405180910390f35b6000634906490660e01b7bffffffffffffffffffffffffffffffffffffffffffffffffffffffff1916827bffffffffffffffffffffffffffffffffffffffffffffffffffffffff1916148061054a57506105498261176e565b5b9050919050565b606060008054610560906132bb565b80601f016020809104026020016040519081016040528092919081815260200182805461058c906132bb565b80156105d95780601f106105ae576101008083540402835291602001916105d9565b820191906000526020600020905b8154815290600101906020018083116105bc57829003601f168201915b5050505050905090565b60006105ee82611850565b506105f8826118d8565b9050919050565b610611828261060c611915565b61191d565b5050565b6000600b54905090565b600073ffffffffffffffffffffffffffffffffffffffff168273ffffffffffffffffffffffffffffffffffffffff16036106915760006040517f64a0ae920000000000000000000000000000000000000000000000000000000081526004016106889190612c42565b60405180910390fd5b60006106a583836106a0611915565b61192f565b90508373ffffffffffffffffffffffffffffffffffffffff168173ffffffffffffffffffffffffffffffffffffffff161461071b578382826040517f64283d7b000000000000000000000000000000000000000000000000000000008152600401610712939291906132ec565b60405180910390fd5b50505050565b61073c83838360405180602001604052806000815250610be1565b505050565b600061074c82611850565b9050919050565b60008073ffffffffffffffffffffffffffffffffffffffff168273ffffffffffffffffffffffffffffffffffffffff16036107c65760006040517f89c62b640000000000000000000000000000000000000000000000000000000081526004016107bd9190612c42565b60405180910390fd5b600360008373ffffffffffffffffffffffffffffffffffffffff1673ffffffffffffffffffffffffffffffffffffffff168152602001908152602001600020549050919050565b600060076000815461081e90613352565b91905081905550600060075490506108363382611b49565b6108408185611c42565b61084a8184611c9e565b8091505092915050565b606060006007549050600060085460075461086f919061339a565b90506000808267ffffffffffffffff81111561088e5761088d612d7d565b5b6040519080825280602002602001820160405280156108c757816020015b6108b46129c0565b8152602001906001900390816108ac5790505b50905060005b84811015610a94573073ffffffffffffffffffffffffffffffffffffffff16600a60006001846108fd91906133ce565b815260200190815260200160002060020160009054906101000a900473ffffffffffffffffffffffffffffffffffffffff1673ffffffffffffffffffffffffffffffffffffffff1603610a8957600060018261095991906133ce565b90506000600a60008381526020019081526020016000209050806040518060a0016040529081600082015481526020016001820160009054906101000a900473ffffffffffffffffffffffffffffffffffffffff1673ffffffffffffffffffffffffffffffffffffffff1673ffffffffffffffffffffffffffffffffffffffff1681526020016002820160009054906101000a900473ffffffffffffffffffffffffffffffffffffffff1673ffffffffffffffffffffffffffffffffffffffff1673ffffffffffffffffffffffffffffffffffffffff168152602001600382015481526020016004820160009054906101000a900460ff161515151581525050848681518110610a6c57610a6b613402565b5b6020026020010181905250600185610a8491906133ce565b945050505b8060010190506108cd565b508094505050505090565b606060018054610aae906132bb565b80601f0160208091040260200160405190810160405280929190818152602001828054610ada906132bb565b8015610b275780601f10610afc57610100808354040283529160200191610b27565b820191906000526020600020905b815481529060010190602001808311610b0a57829003601f168201915b5050505050905090565b610b43610b3c611915565b8383611ea1565b5050565b600960009054906101000a900473ffffffffffffffffffffffffffffffffffffffff1673ffffffffffffffffffffffffffffffffffffffff163373ffffffffffffffffffffffffffffffffffffffff1614610bd7576040517f08c379a0000000000000000000000000000000000000000000000000000000008152600401610bce906134a3565b60405180910390fd5b80600b8190555050565b610bec84848461061f565b610c00610bf7611915565b85858585612010565b50505050565b600a6000828152602001908152602001600020600301543414610c5e576040517f08c379a0000000000000000000000000000000000000000000000000000000008152600401610c5590613535565b60405180910390fd5b33600a600083815260200190815260200160002060020160006101000a81548173ffffffffffffffffffffffffffffffffffffffff021916908373ffffffffffffffffffffffffffffffffffffffff1602179055506001600a600083815260200190815260200160002060040160006101000a81548160ff0219169083151502179055506000600a600083815260200190815260200160002060020160006101000a81548173ffffffffffffffffffffffffffffffffffffffff021916908373ffffffffffffffffffffffffffffffffffffffff160217905550600860008154610d4790613352565b91905081905550610d593033836121c1565b600960009054906101000a900473ffffffffffffffffffffffffffffffffffffffff1673ffffffffffffffffffffffffffffffffffffffff166108fc600b549081150290604051600060405180830381858888f19350505050158015610dc3573d6000803e3d6000fd5b50600a600082815260200190815260200160002060010160009054906101000a900473ffffffffffffffffffffffffffffffffffffffff1673ffffffffffffffffffffffffffffffffffffffff166108fc349081150290604051600060405180830381858888f19350505050158015610e40573d6000803e3d6000fd5b5050565b60606000805b600754811015610ee1573373ffffffffffffffffffffffffffffffffffffffff16600a6000600184610e7c91906133ce565b815260200190815260200160002060020160009054906101000a900473ffffffffffffffffffffffffffffffffffffffff1673ffffffffffffffffffffffffffffffffffffffff1603610ed65781610ed390613352565b91505b806001019050610e4a565b5060008167ffffffffffffffff811115610efe57610efd612d7d565b5b604051908082528060200260200182016040528015610f3757816020015b610f246129c0565b815260200190600190039081610f1c5790505b5090506000805b6007548110156110f8573373ffffffffffffffffffffffffffffffffffffffff16600a6000600184610f7091906133ce565b815260200190815260200160002060020160009054906101000a900473ffffffffffffffffffffffffffffffffffffffff1673ffffffffffffffffffffffffffffffffffffffff16036110ed57600a6000600183610fce91906133ce565b81526020019081526020016000206040518060a0016040529081600082015481526020016001820160009054906101000a900473ffffffffffffffffffffffffffffffffffffffff1673ffffffffffffffffffffffffffffffffffffffff1673ffffffffffffffffffffffffffffffffffffffff1681526020016002820160009054906101000a900473ffffffffffffffffffffffffffffffffffffffff1673ffffffffffffffffffffffffffffffffffffffff1673ffffffffffffffffffffffffffffffffffffffff168152602001600382015481526020016004820160009054906101000a900460ff16151515158152505083836110cd90613352565b935083815181106110e1576110e0613402565b5b60200260200101819052505b806001019050610f3e565b5081935050505090565b606061110d82611850565b50600060066000848152602001908152602001600020805461112e906132bb565b80601f016020809104026020016040519081016040528092919081815260200182805461115a906132bb565b80156111a75780601f1061117c576101008083540402835291602001916111a7565b820191906000526020600020905b81548152906001019060200180831161118a57829003601f168201915b5050505050905060006111b861232e565b905060008151036111cd578192505050611210565b6000825111156112025780826040516020016111ea929190613591565b60405160208183030381529060405292505050611210565b61120b84612345565b925050505b919050565b60606000805b6007548110156112b2573373ffffffffffffffffffffffffffffffffffffffff16600a600060018461124d91906133ce565b815260200190815260200160002060010160009054906101000a900473ffffffffffffffffffffffffffffffffffffffff1673ffffffffffffffffffffffffffffffffffffffff16036112a757816112a490613352565b91505b80600101905061121b565b5060008167ffffffffffffffff8111156112cf576112ce612d7d565b5b60405190808252806020026020018201604052801561130857816020015b6112f56129c0565b8152602001906001900390816112ed5790505b5090506000805b6007548110156114cf573373ffffffffffffffffffffffffffffffffffffffff16600a600060018461134191906133ce565b815260200190815260200160002060010160009054906101000a900473ffffffffffffffffffffffffffffffffffffffff1673ffffffffffffffffffffffffffffffffffffffff16036114c457600060018261139d91906133ce565b9050600a60008281526020019081526020016000206040518060a0016040529081600082015481526020016001820160009054906101000a900473ffffffffffffffffffffffffffffffffffffffff1673ffffffffffffffffffffffffffffffffffffffff1673ffffffffffffffffffffffffffffffffffffffff1681526020016002820160009054906101000a900473ffffffffffffffffffffffffffffffffffffffff1673ffffffffffffffffffffffffffffffffffffffff1673ffffffffffffffffffffffffffffffffffffffff168152602001600382015481526020016004820160009054906101000a900460ff1615151515815250508484815181106114ab576114aa613402565b5b6020026020010181905250826114c090613352565b9250505b80600101905061130f565b5081935050505090565b3373ffffffffffffffffffffffffffffffffffffffff16600a600084815260200190815260200160002060020160009054906101000a900473ffffffffffffffffffffffffffffffffffffffff1673ffffffffffffffffffffffffffffffffffffffff161461157d576040517f08c379a000000000000000000000000000000000000000000000000000000000815260040161157490613601565b60405180910390fd5b600b5434146115c1576040517f08c379a00000000000000000000000000000000000000000000000000000000081526004016115b890613693565b60405180910390fd5b6000600a600084815260200190815260200160002060040160006101000a81548160ff02191690831515021790555080600a60008481526020019081526020016000206003018190555033600a600084815260200190815260200160002060010160006101000a81548173ffffffffffffffffffffffffffffffffffffffff021916908373ffffffffffffffffffffffffffffffffffffffff16021790555030600a600084815260200190815260200160002060020160006101000a81548173ffffffffffffffffffffffffffffffffffffffff021916908373ffffffffffffffffffffffffffffffffffffffff1602179055506008600081546116c4906136b3565b919050819055506116d63330846121c1565b5050565b6000600560008473ffffffffffffffffffffffffffffffffffffffff1673ffffffffffffffffffffffffffffffffffffffff16815260200190815260200160002060008373ffffffffffffffffffffffffffffffffffffffff1673ffffffffffffffffffffffffffffffffffffffff16815260200190815260200160002060009054906101000a900460ff16905092915050565b60007f80ac58cd000000000000000000000000000000000000000000000000000000007bffffffffffffffffffffffffffffffffffffffffffffffffffffffff1916827bffffffffffffffffffffffffffffffffffffffffffffffffffffffff1916148061183957507f5b5e139f000000000000000000000000000000000000000000000000000000007bffffffffffffffffffffffffffffffffffffffffffffffffffffffff1916827bffffffffffffffffffffffffffffffffffffffffffffffffffffffff1916145b806118495750611848826123ae565b5b9050919050565b60008061185c83612418565b9050600073ffffffffffffffffffffffffffffffffffffffff168173ffffffffffffffffffffffffffffffffffffffff16036118cf57826040517f7e2732890000000000000000000000000000000000000000000000000000000081526004016118c69190612cd8565b60405180910390fd5b80915050919050565b60006004600083815260200190815260200160002060009054906101000a900473ffffffffffffffffffffffffffffffffffffffff169050919050565b600033905090565b61192a8383836001612455565b505050565b60008061193b84612418565b9050600073ffffffffffffffffffffffffffffffffffffffff168373ffffffffffffffffffffffffffffffffffffffff161461197d5761197c81848661261a565b5b600073ffffffffffffffffffffffffffffffffffffffff168173ffffffffffffffffffffffffffffffffffffffff1614611a0e576119bf600085600080612455565b6001600360008373ffffffffffffffffffffffffffffffffffffffff1673ffffffffffffffffffffffffffffffffffffffff168152602001908152602001600020600082825403925050819055505b600073ffffffffffffffffffffffffffffffffffffffff168573ffffffffffffffffffffffffffffffffffffffff1614611a91576001600360008773ffffffffffffffffffffffffffffffffffffffff1673ffffffffffffffffffffffffffffffffffffffff168152602001908152602001600020600082825401925050819055505b846002600086815260200190815260200160002060006101000a81548173ffffffffffffffffffffffffffffffffffffffff021916908373ffffffffffffffffffffffffffffffffffffffff160217905550838573ffffffffffffffffffffffffffffffffffffffff168273ffffffffffffffffffffffffffffffffffffffff167fddf252ad1be2c89b69c2b068fc378daa952ba7f163c4a11628f55a4df523b3ef60405160405180910390a4809150509392505050565b600073ffffffffffffffffffffffffffffffffffffffff168273ffffffffffffffffffffffffffffffffffffffff1603611bbb5760006040517f64a0ae92000000000000000000000000000000000000000000000000000000008152600401611bb29190612c42565b60405180910390fd5b6000611bc98383600061192f565b9050600073ffffffffffffffffffffffffffffffffffffffff168173ffffffffffffffffffffffffffffffffffffffff1614611c3d5760006040517f73c6ac6e000000000000000000000000000000000000000000000000000000008152600401611c349190612c42565b60405180910390fd5b505050565b80600660008481526020019081526020016000209081611c629190613888565b507ff8e1a15aba9398e019f0b49df1a4fde98ee17ae345cb5f6b5e2c27f5033e8ce782604051611c929190612cd8565b60405180910390a15050565b60008111611ce1576040517f08c379a0000000000000000000000000000000000000000000000000000000008152600401611cd8906139a6565b60405180910390fd5b600b543414611d25576040517f08c379a0000000000000000000000000000000000000000000000000000000008152600401611d1c90613a38565b60405180910390fd5b6040518060a001604052808381526020013373ffffffffffffffffffffffffffffffffffffffff1681526020013073ffffffffffffffffffffffffffffffffffffffff16815260200182815260200160001515815250600a60008481526020019081526020016000206000820151816000015560208201518160010160006101000a81548173ffffffffffffffffffffffffffffffffffffffff021916908373ffffffffffffffffffffffffffffffffffffffff16021790555060408201518160020160006101000a81548173ffffffffffffffffffffffffffffffffffffffff021916908373ffffffffffffffffffffffffffffffffffffffff1602179055506060820151816003015560808201518160040160006101000a81548160ff021916908315150217905550905050611e5e3330846121c1565b817fdebdb32cb5230ab727c9c361b16fdb2015df225c10e6a3e7f60ecd5dc5be45163330846000604051611e959493929190613a58565b60405180910390a25050565b600073ffffffffffffffffffffffffffffffffffffffff168273ffffffffffffffffffffffffffffffffffffffff1603611f1257816040517f5b08ba18000000000000000000000000000000000000000000000000000000008152600401611f099190612c42565b60405180910390fd5b80600560008573ffffffffffffffffffffffffffffffffffffffff1673ffffffffffffffffffffffffffffffffffffffff16815260200190815260200160002060008473ffffffffffffffffffffffffffffffffffffffff1673ffffffffffffffffffffffffffffffffffffffff16815260200190815260200160002060006101000a81548160ff0219169083151502179055508173ffffffffffffffffffffffffffffffffffffffff168373ffffffffffffffffffffffffffffffffffffffff167f17307eab39ab6107e8899845ad3d59bd9653f200f220920489ca2b5937696c31836040516120039190612ad1565b60405180910390a3505050565b60008373ffffffffffffffffffffffffffffffffffffffff163b11156121ba578273ffffffffffffffffffffffffffffffffffffffff1663150b7a02868685856040518563ffffffff1660e01b815260040161206f9493929190613af2565b6020604051808303816000875af19250505080156120ab57506040513d601f19601f820116820180604052508101906120a89190613b53565b60015b61212f573d80600081146120db576040519150601f19603f3d011682016040523d82523d6000602084013e6120e0565b606091505b50600081510361212757836040517f64a0ae9200000000000000000000000000000000000000000000000000000000815260040161211e9190612c42565b60405180910390fd5b805181602001fd5b63150b7a0260e01b7bffffffffffffffffffffffffffffffffffffffffffffffffffffffff1916817bffffffffffffffffffffffffffffffffffffffffffffffffffffffff1916146121b857836040517f64a0ae920000000000000000000000000000000000000000000000000000000081526004016121af9190612c42565b60405180910390fd5b505b5050505050565b600073ffffffffffffffffffffffffffffffffffffffff168273ffffffffffffffffffffffffffffffffffffffff16036122335760006040517f64a0ae9200000000000000000000000000000000000000000000000000000000815260040161222a9190612c42565b60405180910390fd5b60006122418383600061192f565b9050600073ffffffffffffffffffffffffffffffffffffffff168173ffffffffffffffffffffffffffffffffffffffff16036122b457816040517f7e2732890000000000000000000000000000000000000000000000000000000081526004016122ab9190612cd8565b60405180910390fd5b8373ffffffffffffffffffffffffffffffffffffffff168173ffffffffffffffffffffffffffffffffffffffff1614612328578382826040517f64283d7b00000000000000000000000000000000000000000000000000000000815260040161231f939291906132ec565b60405180910390fd5b50505050565b606060405180602001604052806000815250905090565b606061235082611850565b50600061235b61232e565b9050600081511161237b57604051806020016040528060008152506123a6565b80612385846126de565b604051602001612396929190613591565b6040516020818303038152906040525b915050919050565b60007f01ffc9a7000000000000000000000000000000000000000000000000000000007bffffffffffffffffffffffffffffffffffffffffffffffffffffffff1916827bffffffffffffffffffffffffffffffffffffffffffffffffffffffff1916149050919050565b60006002600083815260200190815260200160002060009054906101000a900473ffffffffffffffffffffffffffffffffffffffff169050919050565b808061248e5750600073ffffffffffffffffffffffffffffffffffffffff168273ffffffffffffffffffffffffffffffffffffffff1614155b156125c257600061249e84611850565b9050600073ffffffffffffffffffffffffffffffffffffffff168373ffffffffffffffffffffffffffffffffffffffff161415801561250957508273ffffffffffffffffffffffffffffffffffffffff168173ffffffffffffffffffffffffffffffffffffffff1614155b801561251c575061251a81846116da565b155b1561255e57826040517fa9fbf51f0000000000000000000000000000000000000000000000000000000081526004016125559190612c42565b60405180910390fd5b81156125c057838573ffffffffffffffffffffffffffffffffffffffff168273ffffffffffffffffffffffffffffffffffffffff167f8c5be1e5ebec7d5bd14f71427d1e84f3dd0314c0f7b2291e5b200ac8c7c3b92560405160405180910390a45b505b836004600085815260200190815260200160002060006101000a81548173ffffffffffffffffffffffffffffffffffffffff021916908373ffffffffffffffffffffffffffffffffffffffff16021790555050505050565b6126258383836127ac565b6126d957600073ffffffffffffffffffffffffffffffffffffffff168373ffffffffffffffffffffffffffffffffffffffff160361269a57806040517f7e2732890000000000000000000000000000000000000000000000000000000081526004016126919190612cd8565b60405180910390fd5b81816040517f177e802f0000000000000000000000000000000000000000000000000000000081526004016126d0929190613b80565b60405180910390fd5b505050565b6060600060016126ed8461286d565b01905060008167ffffffffffffffff81111561270c5761270b612d7d565b5b6040519080825280601f01601f19166020018201604052801561273e5781602001600182028036833780820191505090505b509050600082602001820190505b6001156127a1578080600190039150507f3031323334353637383961626364656600000000000000000000000000000000600a86061a8153600a858161279557612794613ba9565b5b0494506000850361274c575b819350505050919050565b60008073ffffffffffffffffffffffffffffffffffffffff168373ffffffffffffffffffffffffffffffffffffffff161415801561286457508273ffffffffffffffffffffffffffffffffffffffff168473ffffffffffffffffffffffffffffffffffffffff161480612825575061282484846116da565b5b8061286357508273ffffffffffffffffffffffffffffffffffffffff1661284b836118d8565b73ffffffffffffffffffffffffffffffffffffffff16145b5b90509392505050565b600080600090507a184f03e93ff9f4daa797ed6e38ed64bf6a1f01000000000000000083106128cb577a184f03e93ff9f4daa797ed6e38ed64bf6a1f01000000000000000083816128c1576128c0613ba9565b5b0492506040810190505b6d04ee2d6d415b85acef81000000008310612908576d04ee2d6d415b85acef810000000083816128fe576128fd613ba9565b5b0492506020810190505b662386f26fc10000831061293757662386f26fc10000838161292d5761292c613ba9565b5b0492506010810190505b6305f5e1008310612960576305f5e100838161295657612955613ba9565b5b0492506008810190505b612710831061298557612710838161297b5761297a613ba9565b5b0492506004810190505b606483106129a8576064838161299e5761299d613ba9565b5b0492506002810190505b600a83106129b7576001810190505b80915050919050565b6040518060a0016040528060008152602001600073ffffffffffffffffffffffffffffffffffffffff168152602001600073ffffffffffffffffffffffffffffffffffffffff168152602001600081526020016000151581525090565b6000604051905090565b600080fd5b600080fd5b60007fffffffff0000000000000000000000000000000000000000000000000000000082169050919050565b612a6681612a31565b8114612a7157600080fd5b50565b600081359050612a8381612a5d565b92915050565b600060208284031215612a9f57612a9e612a27565b5b6000612aad84828501612a74565b91505092915050565b60008115159050919050565b612acb81612ab6565b82525050565b6000602082019050612ae66000830184612ac2565b92915050565b600081519050919050565b600082825260208201905092915050565b60005b83811015612b26578082015181840152602081019050612b0b565b60008484015250505050565b6000601f19601f8301169050919050565b6000612b4e82612aec565b612b588185612af7565b9350612b68818560208601612b08565b612b7181612b32565b840191505092915050565b60006020820190508181036000830152612b968184612b43565b905092915050565b6000819050919050565b612bb181612b9e565b8114612bbc57600080fd5b50565b600081359050612bce81612ba8565b92915050565b600060208284031215612bea57612be9612a27565b5b6000612bf884828501612bbf565b91505092915050565b600073ffffffffffffffffffffffffffffffffffffffff82169050919050565b6000612c2c82612c01565b9050919050565b612c3c81612c21565b82525050565b6000602082019050612c576000830184612c33565b92915050565b612c6681612c21565b8114612c7157600080fd5b50565b600081359050612c8381612c5d565b92915050565b60008060408385031215612ca057612c9f612a27565b5b6000612cae85828601612c74565b9250506020612cbf85828601612bbf565b9150509250929050565b612cd281612b9e565b82525050565b6000602082019050612ced6000830184612cc9565b92915050565b600080600060608486031215612d0c57612d0b612a27565b5b6000612d1a86828701612c74565b9350506020612d2b86828701612c74565b9250506040612d3c86828701612bbf565b9150509250925092565b600060208284031215612d5c57612d5b612a27565b5b6000612d6a84828501612c74565b91505092915050565b600080fd5b600080fd5b7f4e487b7100000000000000000000000000000000000000000000000000000000600052604160045260246000fd5b612db582612b32565b810181811067ffffffffffffffff82111715612dd457612dd3612d7d565b5b80604052505050565b6000612de7612a1d565b9050612df38282612dac565b919050565b600067ffffffffffffffff821115612e1357612e12612d7d565b5b612e1c82612b32565b9050602081019050919050565b82818337600083830152505050565b6000612e4b612e4684612df8565b612ddd565b905082815260208101848484011115612e6757612e66612d78565b5b612e72848285612e29565b509392505050565b600082601f830112612e8f57612e8e612d73565b5b8135612e9f848260208601612e38565b91505092915050565b60008060408385031215612ebf57612ebe612a27565b5b600083013567ffffffffffffffff811115612edd57612edc612a2c565b5b612ee985828601612e7a565b9250506020612efa85828601612bbf565b9150509250929050565b600081519050919050565b600082825260208201905092915050565b6000819050602082019050919050565b612f3981612b9e565b82525050565b6000612f4a82612c01565b9050919050565b612f5a81612f3f565b82525050565b612f6981612ab6565b82525050565b60a082016000820151612f856000850182612f30565b506020820151612f986020850182612f51565b506040820151612fab6040850182612f51565b506060820151612fbe6060850182612f30565b506080820151612fd16080850182612f60565b50505050565b6000612fe38383612f6f565b60a08301905092915050565b6000602082019050919050565b600061300782612f04565b6130118185612f0f565b935061301c83612f20565b8060005b8381101561304d5781516130348882612fd7565b975061303f83612fef565b925050600181019050613020565b5085935050505092915050565b600060208201905081810360008301526130748184612ffc565b905092915050565b61308581612ab6565b811461309057600080fd5b50565b6000813590506130a28161307c565b92915050565b600080604083850312156130bf576130be612a27565b5b60006130cd85828601612c74565b92505060206130de85828601613093565b9150509250929050565b600067ffffffffffffffff82111561310357613102612d7d565b5b61310c82612b32565b9050602081019050919050565b600061312c613127846130e8565b612ddd565b90508281526020810184848401111561314857613147612d78565b5b613153848285612e29565b509392505050565b600082601f8301126131705761316f612d73565b5b8135613180848260208601613119565b91505092915050565b600080600080608085870312156131a3576131a2612a27565b5b60006131b187828801612c74565b94505060206131c287828801612c74565b93505060406131d387828801612bbf565b925050606085013567ffffffffffffffff8111156131f4576131f3612a2c565b5b6132008782880161315b565b91505092959194509250565b6000806040838503121561322357613222612a27565b5b600061323185828601612bbf565b925050602061324285828601612bbf565b9150509250929050565b6000806040838503121561326357613262612a27565b5b600061327185828601612c74565b925050602061328285828601612c74565b9150509250929050565b7f4e487b7100000000000000000000000000000000000000000000000000000000600052602260045260246000fd5b600060028204905060018216806132d357607f821691505b6020821081036132e6576132e561328c565b5b50919050565b60006060820190506133016000830186612c33565b61330e6020830185612cc9565b61331b6040830184612c33565b949350505050565b7f4e487b7100000000000000000000000000000000000000000000000000000000600052601160045260246000fd5b600061335d82612b9e565b91507fffffffffffffffffffffffffffffffffffffffffffffffffffffffffffffffff820361338f5761338e613323565b5b600182019050919050565b60006133a582612b9e565b91506133b083612b9e565b92508282039050818111156133c8576133c7613323565b5b92915050565b60006133d982612b9e565b91506133e483612b9e565b92508282019050808211156133fc576133fb613323565b5b92915050565b7f4e487b7100000000000000000000000000000000000000000000000000000000600052603260045260246000fd5b7f6f6e6c79206f776e65722063616e206368616e676520746865206c697374696e60008201527f6720707269636500000000000000000000000000000000000000000000000000602082015250565b600061348d602783612af7565b915061349882613431565b604082019050919050565b600060208201905081810360008301526134bc81613480565b9050919050565b7f61736b696e67207072696365206973206e6f74206c6567616c20746f20636f6d60008201527f706c65746520746865207472616e73616374696f6e0000000000000000000000602082015250565b600061351f603583612af7565b915061352a826134c3565b604082019050919050565b6000602082019050818103600083015261354e81613512565b9050919050565b600081905092915050565b600061356b82612aec565b6135758185613555565b9350613585818560208601612b08565b80840191505092915050565b600061359d8285613560565b91506135a98284613560565b91508190509392505050565b7f796f7520617265206e6f7420746865206974656d206f776e6572000000000000600082015250565b60006135eb601a83612af7565b91506135f6826135b5565b602082019050919050565b6000602082019050818103600083015261361a816135de565b9050919050565b7f5072696365206d75737420626520657175616c20746f206c697374696e67207060008201527f7269636500000000000000000000000000000000000000000000000000000000602082015250565b600061367d602483612af7565b915061368882613621565b604082019050919050565b600060208201905081810360008301526136ac81613670565b9050919050565b60006136be82612b9e565b9150600082036136d1576136d0613323565b5b600182039050919050565b60008190508160005260206000209050919050565b60006020601f8301049050919050565b600082821b905092915050565b60006008830261373e7fffffffffffffffffffffffffffffffffffffffffffffffffffffffffffffffff82613701565b6137488683613701565b95508019841693508086168417925050509392505050565b6000819050919050565b600061378561378061377b84612b9e565b613760565b612b9e565b9050919050565b6000819050919050565b61379f8361376a565b6137b36137ab8261378c565b84845461370e565b825550505050565b600090565b6137c86137bb565b6137d3818484613796565b505050565b5b818110156137f7576137ec6000826137c0565b6001810190506137d9565b5050565b601f82111561383c5761380d816136dc565b613816846136f1565b81016020851015613825578190505b613839613831856136f1565b8301826137d8565b50505b505050565b600082821c905092915050565b600061385f60001984600802613841565b1980831691505092915050565b6000613878838361384e565b9150826002028217905092915050565b61389182612aec565b67ffffffffffffffff8111156138aa576138a9612d7d565b5b6138b482546132bb565b6138bf8282856137fb565b600060209050601f8311600181146138f257600084156138e0578287015190505b6138ea858261386c565b865550613952565b601f198416613900866136dc565b60005b8281101561392857848901518255600182019150602085019450602081019050613903565b868310156139455784890151613941601f89168261384e565b8355505b6001600288020188555050505b505050505050565b7f7072696365206d757374206265206174206c6561737420310000000000000000600082015250565b6000613990601883612af7565b915061399b8261395a565b602082019050919050565b600060208201905081810360008301526139bf81613983565b9050919050565b7f7072696365206d75737420626520657175616c20746f206c697374696e67207060008201527f7269636500000000000000000000000000000000000000000000000000000000602082015250565b6000613a22602483612af7565b9150613a2d826139c6565b604082019050919050565b60006020820190508181036000830152613a5181613a15565b9050919050565b6000608082019050613a6d6000830187612c33565b613a7a6020830186612c33565b613a876040830185612cc9565b613a946060830184612ac2565b95945050505050565b600081519050919050565b600082825260208201905092915050565b6000613ac482613a9d565b613ace8185613aa8565b9350613ade818560208601612b08565b613ae781612b32565b840191505092915050565b6000608082019050613b076000830187612c33565b613b146020830186612c33565b613b216040830185612cc9565b8181036060830152613b338184613ab9565b905095945050505050565b600081519050613b4d81612a5d565b92915050565b600060208284031215613b6957613b68612a27565b5b6000613b7784828501613b3e565b91505092915050565b6000604082019050613b956000830185612c33565b613ba26020830184612cc9565b9392505050565b7f4e487b7100000000000000000000000000000000000000000000000000000000600052601260045260246000fdfea26469706673582212203a146831901b69c33994480aedf0f90db4fc054cb4f4988084dd1ed642eb204e64736f6c634300081c0033",
  "linkReferences": {},
  "deployedLinkReferences": {}
}